:020000040000fa
:080000000002040000000000f2
:020000040000fa
:100008009a0200009a0200009a0200009a02000078
:100018009a0200009a0200009a0200009a02000068
:100028009a0200009a0200009a0200009a02000058
:100038009a0200009a0200009a0200009a02000048
:100048009a0200009a020000861e00009a02000030
:100058009a0200007c2200009a0200009a02000026
:100068009a0200009a0200009a0200006627000027
:100078009a0200009a0200009a0200009a02000008
:100088009a0200009a0200009a02000078240000f8
:100098009a0200009a0200009a0200009a020000e8
:1000a8009a0200009a0200009a0200009a020000d8
:1000b8009a0200009a0200009a0200009a020000c8
:1000c8009a0200009a0200009a0200009a020000b8
:1000d8009a0200009a0200009a0200009a020000a8
:1000e8009a0200009a0200009a0200009a02000098
:1000f8009a0200009a0200009a0200009a02000088
:100108009a0200009a0200009a0200009a02000077
:100118009a0200009a0200009a0200009a02000067
:100128009a0200009a0200009a0200009a02000057
:100138009a0200009a0200009a0200009a02000047
:100148009a0200009a0200009a0200009a02000037
:100158009a0200009a0200009a0200009a02000027
:100168009a0200009a0200009a0200009a02000017
:100178009a0200009a0200009a0200009a02000007
:100188009a0200009a0200009a0200009a020000f7
:100198009a0200009a0200009a0200009a020000e7
:1001a8009a0200009a0200009a0200009a020000d7
:1001b8009a0200009a0200009a0200009a020000c7
:1001c8009a0200009a0200009a0200009a020000b7
:1001d8009a0200009a0200009a0200009a020000a7
:1001e8009a0200009a0200009a0200009a02000097
:0801f8009a0200009a020000c7
:020000040000fa
:100208009a0200009a0200009a0200009a02000076
:100218009a0200009a0200009a0200009a02000066
:100228009a0200009a0200009a0200009a02000056
:100238009a0200009a0200009a0200009a02000046
:100248009a0200009a020000861e00009a0200002e
:100258009a0200007c2200009a0200009a02000024
:100268009a0200009a0200009a0200006627000025
:100278009a0200009a0200009a0200009a02000006
:100288009a0200009a0200009a02000078240000f6
:100298009a0200009a0200009a0200009a020000e6
:1002a8009a0200009a0200009a0200009a020000d6
:1002b8009a0200009a0200009a0200009a020000c6
:1002c8009a0200009a0200009a0200009a020000b6
:1002d8009a0200009a0200009a0200009a020000a6
:1002e8009a0200009a0200009a0200009a02000096
:1002f8009a0200009a0200009a0200009a02000086
:100308009a0200009a0200009a0200009a02000075
:100318009a0200009a0200009a0200009a02000065
:100328009a0200009a0200009a0200009a02000055
:100338009a0200009a0200009a0200009a02000045
:100348009a0200009a0200009a0200009a02000035
:100358009a0200009a0200009a0200009a02000025
:100368009a0200009a0200009a0200009a02000015
:100378009a0200009a0200009a0200009a02000005
:100388009a0200009a0200009a0200009a020000f5
:100398009a0200009a0200009a0200009a020000e5
:1003a8009a0200009a0200009a0200009a020000d5
:1003b8009a0200009a0200009a0200009a020000c5
:1003c8009a0200009a0200009a0200009a020000b5
:1003d8009a0200009a0200009a0200009a020000a5
:1003e8009a0200009a0200009a0200009a02000095
:0803f8009a0200009a020000c5
:020000040000fa
:100400002f4522000e7f22000e0188000000000010
:10041000000020000000e000020032000001200087
:10042000200288000c000700007822000100200054
:1004300011000700000020000000e0000200320070
:100440000000020000000000440d02000000000057
:100450000040da000000fe004440a9006071200066
:100460000000e0000300320000002000a00188002e
:100470004440a80000000600910188008000780038
:100480000000eb0015003700e280400032a0b4000d
:100490009101ba00e280400032a0b4009102ba009b
:1004a000e280400032a0b4000002eb00472bde00e7
:1004b000f507b200602ce10004003a000059eb009f
:1004c0008301e900fdff3e00040037006128e100e0
:1004d000010032000082eb00040007001101ba00a5
:1004e0000200e000e8ff3a00000006003159ba00bf
:1004f0008301e9000c0032002159ba008301e900b0
:10050000080032000400e00003003a00e2804000ee
:1005100032a0b400f5ff370011d9ba008301e90019
:10052000faff3a008100e800e180400032a0b40008
:10053000000006000040da000000fe0003f0a20008
:10054000889fbe008a9fbe008c1f7800f8000700bd
:10055000ff0033006450e1004f0032006420e100ee
:100560005200320003826c0007003b000905d000f6
:100570000306d000820f54000c065d000200390013
:100580000200320089017800030678008582550058
:1005900004003d000003fd008103fd008502ea0028
:1005a0008b854200840f720002003b006000100047
:1005b000e08018006011b8000005eb007a28e10027
:1005c0000a00390006007800c75ddd00f707b200b9
:1005d000878075002d003700828171000a01780044
:1005e000610560008180d1000080d3008502e900b0
:1005f000f9ff3b00060440008784480002003b00ee
:1006000060041400e0841c000988a3000700320085
:100610008a81710082817100610164008904d100c6
:100620000884d3008b05e800170037000978a30081
:1006300013003a000b00e000130034008b05e900c2
:100640000804440089844c000a4474000978a3001b
:100650000d003a000b00e000070034008b05e900b4
:100660000804440089844c0001003a000b0020007b
:100670000978a300f7ff32000001eb000200370009
:10068000828171000a0178006e0007000cf0a7005b
:1006900001f0a000b70037006420e10002003a003a
:1006a000838f6c00b70033000801be000200be005b
:1006b000b0003700889fbe008a9fbe008c1f780064
:1006c0009b000700a200330003866c006450e10029
:1006d0002e0032006420e100330032006150e1005e
:1006e0002f0032006120e100310032008585550085
:1006f000eb07b000090020000804200005003700c7
:100700000804440089844c000a00310006034300b9
:1007100087834b000001530081815b00f8ff3300a9
:100720000203be000800a0000804440089844c00b5
:10073000f6ff3900c639dd00830173000100320085
:10074000130020008904d1000884d3000998a30075
:10075000050032000800a7000300a0008904d100b2
:100760000884d3008b05e8008904d1000884d300f5
:100770000001eb000281d2003200070001f0a1006d
:100780000cf0a70001f0a0007a0037006420e1001f
:100790007c0032000801be000200be00f7ff3700f7
:1007a0006120e100770032006000b800f3ff3700fd
:1007b0000000200001f82700f0ff3700140020009f
:1007c000a7003700f4ff2f00a50037000001be008e
:1007d000420007000470a70003f0a10003f8a30083
:1007e00013003a006509b10010003200090035001d
:1007f0006928e10002003500010028000000050022
:1008000000004000818048008502e900fcff3a00ba
:1008100000000600f88f4200050035008100d1007d
:100820000080d3008502e800fcff3a0000000600cb
:100830008000eb00000005004f89de008201780097
:10084000a200370081002000618055000b003d00b0
:100850000b00200061fe2f000100e1001d003400ac
:1008600082817100610164008904d1000884d30091
:100870000000e800faff3a00710020006100640007
:1008800003007000020060000900320061044400af
:10089000e0844c000988a500050032008b05e800c3
:1008a0006808e10002003a008904d1000884d300fe
:1008b000f20f20000258e10005003d00c75ddd0099
:1008c000f907b20089807500080078000000060072
:1008d0000bf827008b00780000000500c70ade0037
:1008e000f107b200f50fb20008003200e1cf42007c
:1008f000020032000170a00024000500810f70008a
:10090000010032000408050044000500810f70005a
:1009100002003a00140005008502e90000004000d2
:1009200081c04800fcff3b000170a00024000500ce
:100930000004be00e9ff07000003be000405be007e
:100940000200be00e5ff0700844f750000000600ae
:100950000200be006450e100050036006420e100a2
:10096000020036000968a30001003a000800be003a
:100970000160a0004f0678004f05be004f04be0086
:1009800000000600f0ff2f00f1ff2700f9ff3700fd
:10099000889fbe008a9fbe008c1f7800e4ff07007e
:1009a000ebff330003866c006450e100240032004a
:1009b0006420e100270032006150e1002200320093
:1009c0006120e100210032008b854200eb07b1007d
:1009d0000134b800003ab8000804420089844a0093
:1009e000013ab8000030b8008880400009014a0090
:1009f00004003300000040008180480002014900eb
:100a00008b05e900c909dd00830170000100320097
:100a100013002000c814de004814dd004709de0082
:100a20001200b200c808de000884700085ff0700cd
:100a300001f0a1000cf0a70001f0a000cdff3700ed
:100a40006120e100cfff32000801be000200be00bd
:100a5000f7ff37006150e100fcff3a00c9ff3700a3
:100a6000889fbe008a9fbe00841f7800b0ff0700e9
:100a70004f00780011003300f0ff2f00838f6c00cf
:100a800006003b00040565000a00a70008003700c7
:100a900009f0a6001000200008003700820f540063
:100aa000838f5c00030039001000200001003e002d
:100ab0000000200009f0a7000000ea004f05be007a
:100ac0004f04be000000e00000000600881f780010
:100ad000030478000300e00007003d006000100000
:100ae000e080180060011900e081190002003b005d
:100af00001f02d00030037000400070008f0a700f4
:100b000001f0a0004f04780000000600889fbe009e
:100b10008a9fbe000082700004027100048271008e
:100b2000260032000004be000200be006011b800c2
:100b30006b092000950220000182cf000a003900d5
:100b40000541b1000082cf00070039000541b10026
:100b50000982cf00040039000541b1000882cf00ae
:100b6000010039000541b100054252001200320077
:100b70000a003b0082817100610164008100d100a4
:100b80000080d3008984d3000884d3008b05e8005b
:100b90000442e800f7ff3a00070037000804440069
:100ba00089844c0000004800818048008b05e900e2
:100bb0000442e900f9ff3a0022ff07004f05be009a
:100bc0004f04be000000060000027800020037005b
:100bd000315a78000201e900e00f5100fcff3a00b1
:100be000000006000002780002003700015a780079
:100bf0000201e900e00f5100fcff3a00000006008e
:100c000000027800b1427800055a7800e0cf520027
:100c1000fcff3a00000006000002780006003700e2
:100c2000314378000201e900065a78008402780016
:100c3000e04f53000600320084027800e00f5100bc
:100c4000f7ff3a0002003700805aeb000201e9008a
:0c0c5000e00f5100fcff3a00000006001d
:020000040000fa
:100c5c0004f0000000010000045800000200000035
:100c6c000400000000000000040000004d610000c2
:100c7c00046900006e5300000474000061670000fa
:100c8c000765000000f7000004f000000001000000
:100c9c0004580000020000000400000000000000e6
:100cac0004000000556e000004740000697400001c
:100cbc00046c00006564000004200000436f000019
:100ccc00046e0000636500000472000074000000f4
:100cdc00040100007f00000004000000005400002c
:100cec00046f0000702000000450000069630000d5
:100cfc00046b000073000000040200007f00000081
:100d0c00040000000053000004740000656900003a
:100d1c00046e000077610000047900002047000099
:100d2c0004720000616e000004640000205000009a
:100d3c0004690000616e0000046f000000020000f6
:100d4c00047f00000100000004000000436c000060
:100d5c00046100007373000004690000632000004c
:100d6c00044500006c650000046300007472000010
:100d7c000469000063200000045000006961000059
:100d8c00046e00006f000000040200007f020000ef
:100d9c000400000000450000046c000065630000c6
:100dac00047400007269000004630000204200001b
:100dbc00047500007a7a000004000000027f000035
:100dcc0004030000000000000443000068690000f8
:100ddc00046c00006c200000044f000075740000cf
:100dec0004000000027f000004040000000000006a
:100dfc00045400006f6e000004650000776800006a
:100e0c0004650000656c0000042000004f720000b7
:100e1c0004670000616e000004000000027f000007
:100e2c000405000000000000044a0000756d00007d
:100e3c0004700000205500000470000020420000e7
:100e4c00046100007373000004000000027f0000c6
:100e5c00040600000000000004530000747200003f
:100e6c00046900006e67000004200000456e00005d
:100e7c0004730000656d0000046200006c650000e6
:100e8c0004000000027f00000407000000000000c6
:100e9c0004410000636f00000475000073740000cf
:100eac00046900006320000004470000756900001d
:100ebc00047400006172000004000000017f000057
:100ecc000400000001000000044100006c630000fd
:100edc0004680000656d0000047900000002000049
:100eec00047f0000000100000400000045700000b9
:100efc000469000063200000044800006f6f0000cc
:100f0c00046b000020530000047900006e74000094
:100f1c000468000000020000047f000001010000d2
:100f2c000400000053750000046e00002047000010
:100f3c000f6c0000000000000469000074740000d5
:100f4c000465000072730000042000005061000072
:100f5c000464000000020000047f00000201000095
:100f6c00040000004d6f0000046e0000737400005c
:100f7c000465000072200000044200006173000050
:100f8c000473000000020000047f00000301000055
:100f9c000400000048790000047000006e6f00002f
:100fac000474000069630000042000005379000001
:100fbc00046e000074680000042000004261000010
:100fcc000473000073000000040100007f000000a7
:100fdc00040200000050000004690000616e000073
:100fec00046f000073000000040200007f0000008a
:100ffc00040200000050000004690000616e000053
:10100c00046f000020260000042000005570000032
:10101c00047200006967000004680000742000007e
:10102c000442000061730000047300000002000021
:10103c00047f000001020000040000004772000061
:10104c00046100006e640000042000005069000080
:10105c00046100006e6f000004200000616e00004f
:10106c0004640000205000000461000064000000d3
:10107c00040200007f020000040200000047000090
:10108c0004720000616e0000046400002050000037
:10109c0004690000616e0000046f00002061000014
:1010ac00046e000064200000045300007472000001
:1010bc00046900006e670000047300000002000069
:1010cc00047f0000030200000400000047720000cf
:1010dc00046100006e6400000420000050690000f0
:1010ec00046100006e6f00000420000077690000ae
:1010fc0004740000682000000450000061640000cb
:10110c00042000002620000004430000686f00004b
:10111c000469000072000000040100007f00000060
:10112c000403000000450000046c0000656300002f
:10113c000474000072690000046300002050000079
:10114c0004690000616e0000046f00007300000071
:10115c00040200007f0000000403000000420000b5
:10116c00047200006967000004680000742000002d
:10117c00044d00006b2000000449000049200000d1
:10118c00044200006c610000046300006b66000008
:10119c00046100006365000004000000027f000091
:1011ac000401000003000000044300006c61000017
:1011bc0004730000736900000463000020530000f6
:1011cc000475000069740000046300006173000082
:1011dc0004650000204d0000046b00002049000055
:1011ec000f5600000000000004000000027f000009
:1011fc00040200000300000004440000656c0000c1
:10120c000475000078650000042000004d6f00009c
:10121c000464000065720000046e0000000200000f
:10122c00047f000003030000040000005775000059
:10123c00047200006c690000047400007a65000000
:10124c000472000020430000046c00006173000075
:10125c00047300006963000004000000027f0000ba
:10126c000404000003000000045700007572000025
:10127c00046c000069740000047a000065720000c0
:10128c00042000004d6f0000046400006572000033
:10129c00046e000000010000047f00000004000048
:1012ac00040000004f72000004670000616e000033
:1012bc000473000000020000047f00000004000022
:1012cc0004000000436c0000046100007373000014
:1012dc000469000063200000045200006f630000ea
:1012ec00046b0000204f00000472000067610000d6
:1012fc00046e000000020000047f000001040000e6
:10130c000400000042650000046200006f700000e1
:10131c00042000004f72000004670000616e0000a2
:10132c0004000000027f0000040200000400000022
:10133c000447000072610000046e0000642000008d
:10134c00044f000072670000046100006e00000092
:10135c00040200007f0300000404000000500000a1
:10136c00046f000077650000047200002043000049
:10137c00046800006f72000004640000204f00003d
:10138c000472000067610000046e0000000200009f
:10139c00047f00000404000004000000536f0000f0
:1013ac00047500006c200000044f00007267000000
:1013bc00046100006e000000040200007f050000c4
:1013cc000404000000480000046500006176000081
:1013dc0004790000204d00000465000074610000d9
:1013ec00046c0000204f00000472000067610000d4
:1013fc00046e000000010000047f000000050000e6
:10140c0004000000436c00000461000076730000cf
:10141c0004000000027f0000040000000500000032
:10142c00044300006c610000047300007369000049
:10143c000463000020440000043600000002000099
:10144c00047f00000105000004000000436c000054
:10145c000461000076200000044100007574000057
:10146c00046f00002d5700000461000068000000ac
:10147c00040200007f02000004050000005300007d
:10148c000465000076650000046e000074690000bd
:10149c000f650000000000000473000020430000f2
:1014ac00046c00006176000004000000027f000064
:1014bc0004030000050000000444000069730000f0
:1014cc00047400006f720000047400006564000076
:1014dc0004200000436c0000046100007600000052
:1014ec00040100007f00000004060000004d000015
:1014fc00046100006c6c0000046500007473000053
:10150c0004000000027f0000040000000600000040
:10151c000452000065610000046c00006973000057
:10152c000474000069630000042000004d61000099
:10153c0004720000696d000004620000610000008c
:10154c00040200007f0100000406000000520000ad
:10155c0004650000616c00000469000073740000f5
:10156c00046900006320000004560000696200005a
:10157c000472000061700000046800006f6e0000cf
:10158c000465000073000000040100007f000000ef
:10159c0004070000004200000461000073730000a7
:1015ac000465000073000000040200007f000000ce
:1015bc0004070000004d0000047500007465000075
:1015cc0004640000204200000461000073730000fa
:1015dc0004000000027f000004010000070000006e
:1015ec0004560000696e000004740000616700007e
:1015fc000465000020530000047900006e740000a4
:10160c0004680000204200000461000073730000b5
:10161c0004000000027f000004020000070000002c
:10162c0004420000696700000420000053610000c0
:10163c000477000020420000046100007373000076
:10164c0004000000027f00000403000007000000fb
:10165c0004500000756c000004730000652000004d
:10166c00044c00006567000004610000746f00000a
:10167c0004200000426100000473000073000000ad
:10168c00040100007f00000004080000005300006b
:10169c00047900006e74000004680000204c000007
:1016ac000465000061640000047300000002000087
:1016bc00047f00000008000004000000416d0000e1
:1016cc000462000069650000046e000074200000d4
:1016dc00044c00006561000004640000000200007e
:1016ec00047f00000108000004000000436c0000af
:1016fc0004610000737300000469000063200000a3
:10170c0004530000796e0000046300006572000051
:10171c0004000000027f000004020000080000002a
:10172c000450000065720000046300007573000033
:10173c00047300006976000004650000205300006b
:10174c000f710000000000000475000061720000c1
:10175c0004650000204c000004650000616400007a
:10176c0004000000027f00000403000008000000d9
:10177c00045300006174000004750000726e0000d8
:10178c00042000004c6500000461000064000000af
:10179c00040100007f000000040900000053000059
:1017ac00047900006e7400000468000020500000f2
:1017bc00046100006473000004000000027f00005c
:1017cc000400000009000000044100006e610000ec
:1017dc00046c00006f6700000420000053700000d0
:1017ec0004680000657200000465000073000000ce
:1017fc00040200007f010000040900000045000005
:10180c00047000006963000004200000537900009c
:10181c00046e000074680000042000005374000083
:10182c0004720000696e0000046700007300000081
:10183c00040200007f0200000409000000530000b5
:10184c00046c00006f770000042000005379000046
:10185c00046e000074680000042000004272000056
:10186c000461000073730000042000005377000033
:10187c00046500006c6c000004000000027f000096
:10188c000403000009000000045300007061000014
:10189c000463000065200000044700006c69000030
:1018ac0004740000746500000472000073000000f2
:1018bc00040200007f040000040900000053000033
:1018cc000465000061200000046f00006620000029
:1018dc00044700006c6100000473000073000000fa
:1018ec00040100007f000000040a00000041000019
:1018fc000472000070650000046700006769000056
:10190c0004610000746500000464000020530000b2
:10191c00047900006e74000004680000730000007d
:10192c00040200007f000000040a000000430000d5
:10193c00046c000061730000047300006963000014
:10194c0004200000416e0000046100006c6f000078
:10195c0004670000204100000472000070000000c9
:10196c00040200007f010000040a00000041000096
:10197c0004690000727300000468000069700000c4
:10198c00042000005269000004730000696e00001e
:10199c000467000000020000047f0000020a00003f
:1019ac00040000005269000004730000696e00001e
:1019bc0004670000205700000461000076650000f9
:1019cc000473000000020000047f0000030a000002
:1019dc0004000000476c00000461000073730000f9
:1019ec00042000004d6f000004740000696f0000bb
:1019fc000f6e00000000000004000000027f0000d9
:101a0c00040400000a00000004540000726100008d
:101a1c0004760000656c0000046900006e6700002d
:101a2c00042000005769000004740000686f000077
:101a3c000475000074200000044d00006f76000057
:101a4c00046900006e67000006000000f70000004b
:101a5c000bb00000200000000bb0000000000000e4
:101a6c000cc000007f0000000bb00000480000001c
:0c1a7c000bb0000048000000000000005b
:020000040000fa
:101a88001200fa00889fbe006022b8004407980040
:101a9800550798003e0d0700300607005906070055
:101aa800f40a070004cfb300544f98000002eb007b
:101ab800b4e988002a0037000002eb0094e98800a6
:101ac800210037000002eb00a4e988000e0037006f
:101ad800b6e9800095e98000a4e980004333dd0081
:101ae80085024300c42add008482420084d5210097
:101af800048242005e489000004a7800a4e9800011
:101b08000402e800a4e98800a4e98000ef0f52006d
:101b1800efff340095e9800044002000110009001f
:101b28008402d80001027800e30f520003003a0053
:101b38005e4a90000482ea00544f980094e98000bd
:101b48000402e80094e9880094e98000e70f520055
:101b5800dcff3400b4e980000402e800b4e988003e
:101b6800b4e98000e70f5200d3ff34000002eb0015
:101b780094e988000700370094e98000044278005f
:101b8800044078005c07070094e980000402e8003c
:101b980094e9880094e98000e70f5200f6ff3400ca
:101ba80064c421008042eb00054a780004cf21007c
:101bb8008042eb00054a780014cf21008042eb00f8
:101bc800054a780034cf21008042eb00054a7800ae
:101bd80054cf21008042eb00054a780064cf2100f1
:101be8008042eb00054a780074cf21008042eb0068
:101bf800054a7800f40f2000140798000002eb0053
:101c080044e988000042eb006447980064c421005e
:101c1800144278008482fb002408200004aab9003a
:101c28008402780004ac21000482420055ceb3003f
:101c3800054a780064c42100144278000404a20014
:101c48008482fb002408200004aab90084027800da
:101c580004ac21000482420055ceb300054a780046
:101c68000401200064e9880064c42100144278005b
:101c78008482fb0064e98000044378002408200083
:101c880004aab9008402780044ad2100048242000d
:101c9800064a780064c42100144278000404a200b3
:101ca8008482fb0064e98000044378002408200053
:101cb80004aab9008402780044ad210004824200dd
:101cc800064a780064bc210025c3b300054a7800a1
:101cd800e4bc210085ccb300054a780014c0b300e9
:101ce800444f980064bc21009442780034c6b30085
:101cf80084cf520008003e0064bc210014427800e2
:101d08008482fb00b4ff2f0004aab9000402780003
:101d18000420b000140c880004cf2100144278007d
:101d2800e04f52009301320014002000040f7800a5
:101d380074e9800085e9800061024200e0824a007f
:101d480074e9880085e988000002eb0094e98800be
:101d5800430137000002eb00b4e988000002eb0001
:101d6800a4e988000f003700a4e9800096e9800004
:101d78006522b9000402780006024200840242008b
:101d880084c421000482420094027800b4e98000ef
:101d980004824200b4e98800a4e980000402e80053
:101da800a4e98800a4e98000ef0f5200eeff340098
:101db800b4e98000cfa2de000400be009cfa070050
:101dc8000002be0024e8880035e8880094e9800015
:101dd800e40f5200ba003a0044de8000cfa2de00d1
:101de8000400be0092fa07000002be0002002000b4
:101df800031824000400be00e3fa07000002be0036
:101e080004e8880015e8880054de8000cfa2de00d0
:101e18000400be0086fa07000002be00020020008f
:101e2800031824000400be00d7fa07000002be0011
:101e3800e4e78800f5e7880064de8000cfa2de00d2
:101e48000400be007afa07000002be00020020006b
:101e5800031824000400be00cbfa07000002be00ed
:101e680044e8880055e88800e6e78000f7e7800046
:101e780004e8800015e880000401be000600be00ea
:101e8800acf907000002be000404be0044e880006c
:101e980055e880000401be000400be00a6f9070052
:101ea8000002be000401be000800be00a1f9070040
:101eb8000002be00c4e78800d5e78800c4e78000b8
:101ec800d5e7800018c0b3000200200003f8230003
:101ed8000400be0037fa070000027800e00f520045
:101ee800010035000044eb00e04f540004003200cc
:101ef8000400200005f82300c4e78800d5e788001f
:101f080026e8800037e8800004e8800015e88000b3
:101f18000401be000600be0086f907000002be00ec
:101f28000403be00c4e78000d5e780000401be00ba
:101f38000600be00ddf907000002be0064e8880064
:101f480075e8880064e8800075e8800018c0b30070
:101f58000200200003f823000400be0017fa07005f
:101f680000027800e00f520001003c000044eb0042
:101f7800e04f5400040032000400200005f823005c
:101f880064e8880075e8880064e8800075e88000e7
:101f980018c0b3006011b8000400be0005fa0700bd
:101fa80000027800e00f5200010035000044eb0009
:101fb800e04f5400030032006022b80064e8880053
:101fc80075e8880064e8800075e880000200200059
:101fd800036824000400be006bfa07000002be007c
:101fe80084e8880095e8880084e8800095e8800007
:101ff8000400be00f3f907000002be0024079800a1
:1020080064c42100144278008482fb002408200064
:1020180004aab900040278008482e80004ac210014
:102028000482420094027800b4e9800044a2de00f1
:10203800848f52002b00320064c4210014427800bf
:102048008482fb00b4e9800044a3de002408200059
:1020580004aab9008402780024ac2100048242005a
:10206800060a780064c42100144278008483fb00c7
:1020780064c42100144278008482fb0024082000f4
:1020880004aab90004027800f002420004ac21005e
:1020980004824200944290001e02780004427800b4
:1020a80004c372002408200004bab900840278002e
:1020b80004ad21000482420016429800090037004e
:1020c80024e8800035e8800002002000036824002e
:1020d8000400be0075f907000002be0064e888002d
:1020e80075e8880094e98000c222dd0044d121000f
:1020f800048242001403be0064e8800075e8800092
:102108000401be000600be000af907000002be0076
:1021180005f0a10018c0b300f226210033c0230047
:102128000400be00a5f9070000027800e00f520085
:1021380001003c000044eb00e04f54004200320034
:1021480096e9800064e8800075e88000c233dd000d
:1021580046d1210006834300048bbe0064c42100dd
:10216800144278008483fb0064c421001442780080
:102178008482fb002408200004aab9000402780025
:10218800f002420004ac2100048242009442900014
:102198001e0278000442780004c37200240820005c
:1021a80004bab9008402780004ad21000482420018
:1021b8001642980064e8800075e88000020020005c
:1021c800036824000400be00eff907000002be0007
:1021d80084e8880095e8880084e8800095e8800015
:1021e8000400be0077f907000002be00240798002b
:1021f8002e0290004722de0024079800ae029000cd
:10220800f4072000848f520002003600f4072000f3
:102218002407980064c42100144278008482fb00db
:1022280097e980002e0290000443780024082000db
:1022380004aab900040278008702420044ac2100d5
:1022480004824200064a78001e0278000402420016
:10225800040f780094e980000402e80094e98800fb
:1022680094e98000e40f5200bafe340064cf2100e4
:1022780014427800e04f52001600320064c4210076
:10228800144278008483fb0064c42100144278005f
:102298008482fb002408200004aab9000402780004
:1022a800f002420004ac21000482420094429000f3
:1022b8001e0278000442780004c37200240820003b
:1022c80004bab9008402780004ad210004824200f7
:1022d800164298001e02780004024200040f78009b
:1022e80054cf210014427800e04f5200160032000b
:1022f80064c42100144278008483fb0064c4210074
:10230800144278008482fb002408200004aab90043
:1023180004027800f002420004ac2100048242006a
:10232800944290001e0278000442780004c37200b0
:102338002408200004bab9008402780004ad210002
:10234800048242001642980004cf21008042eb002c
:10235800054a780064cf21008042eb00054a7800e6
:1023680054cf21008042eb00054a78000042eb0080
:10237800444f980034cf210014427800e04f5200b7
:1023880047003200541680004822de0054e98800d5
:1023980054e980009e02900004826a007407980045
:1023a8007e029000e00f52003900320054e98000ac
:1023b8001407980014002000040f78000002eb00b6
:1023c800b4e988002f0037007e0290001e026200e8
:1023d800e00f5200250032001e0290001e0262002b
:1023e800e00f52001100320064c42100144278004a
:1023f8008482fb00b6e980002408200004aab90002
:10240800040278008602420084ac21000482420063
:102418008042eb0015429800b4e9800085ce210087
:1024280016c0b30086727a001000370064c4210019
:10243800144278008482fb00b6e98000240820005a
:1024480004aab900040278008602420084ac210084
:102458000482420015c0b30015429800b4e9800018
:1024680085ce21000043eb0086727a001e027800b8
:1024780004024200040f7800b4e980000402e80076
:10248800b4e98800b4e98000e70f5200ceff3400b9
:102498006605070034cf21008042eb00054a78002a
:1024a80024cf210014427800e04f5200010132008d
:1024b8006e429000e74f520002003e006e409000ce
:1024c8000d05070044e980006447980064c42100b2
:1024d800144278008482fb002408200004aab90072
:1024e8008402780004ac21000483420064c4210003
:1024f800144278000404a2008482fb00240820000f
:1025080004aab9008402780004ac210004824200c5
:10251800220820008600780004007800a8f9070047
:1025280006ac210064c42100144278008482fb00b8
:102538002408200004aab900040278000402430019
:10254800040f980011c4b3000e089000b8050700e6
:1025580064c42100144278000404a2000482fb0031
:102568008442780064c42100054a780064c42100cc
:10257800144278008482fb002408200004aab900d1
:102588008402780004ad2100048242008042eb00fe
:102598001542980064c42100144278008482fb002c
:1025a8002408200004aab9008402780024ad210080
:1025b800048242008042eb00054a780064c421008e
:1025c800144278008482fb002408200004aab90081
:1025d8008402780044ad2100048242008042eb006e
:1025e80015429800d4a2a900d4a2a80024cf2100a3
:1025f8008042eb00054a78000042eb00444f980007
:1026080014002000040f78000002eb00b4e98800f1
:10261800a500370064c42100144278008482fb00be
:10262800b6e980002408200004aab9000402780052
:1026380006024200e802420004ac21000482420083
:1026480014429000e04f52006200320064c421003e
:10265800144278008482fb00b6e980002408200038
:1026680004aab9000402780006024200e802420007
:1026780004ac21000482420094429000e4bc210092
:102688001442780084cf52005200310064c4210003
:10269800144278008483fb00b6e9800024082000f7
:1026a80004bab9000402780006024200e8024200b7
:1026b80004ac210004824200144290000440e80067
:1026c8002408200004bab9000402780086024200f7
:1026d80084ac2100048242001042980064c42100a6
:1026e800144278008482fb00b6e9800024082000a8
:1026f80004aab9000402780006024200e802420077
:1027080004ac21000482420094429000e4bc210001
:102718001442780084c26a000582fb000402e900c2
:102728004f22de008442780064c4210014427800fd
:102738008483fb00b4e980002608200006bbb900aa
:1027480006037800040243006803420004ac210039
:10275800040243001442900054c0b2000482fb00fb
:102768000402e9004f22de000442780004c272002d
:10277800e04f52004600320064c421001442780041
:102788008483fb0064c42100144278008482fb0027
:102798002408200004aab90004027800f2024200ca
:1027a80004ac210004824200944278001e027800a2
:1027b8000442780004c372002408200004bab90057
:1027c8008402780024ad210004824200064a780081
:1027d8002f003700b4e9800085ce210065427a00d9
:1027e800e04f52002a003200b4e9800085ce210073
:1027f80065427a00e44f520006003e00b4e98000ca
:1028080085ce2100e5427a000543e80085ce210007
:1028180086727a00b4e9800085ce210065427a008c
:10282800e54f52001a003a0064c4210014427800af
:102838008483fb0064c42100144278008482fb0076
:102848002408200004aab90004027800f402420017
:1028580004ac210004824200944290001e027800d9
:102868000442780004c372002408200004bab900a6
:102878008402780044ad2100048242001642980088
:10288800b4e9800085ce21000043eb0086727a000f
:102898001e02780004024200040f7800b4e98000a8
:1028a8000402e800b4e98800b4e98000e70f5200a8
:1028b80058ff340044cf210014427800e04f520002
:1028c800190032003e00070044cf21008042eb008f
:1028d800054a780064c42100144278008483fb0010
:1028e80064c42100144278008482fb00240820007c
:1028f80004aab90004027800f002420004ac2100e6
:10290800048242009442900004c8b30004c37200d9
:102918002408200004bab9008402780004ad21001c
:10292800048242001642980044bd210014427800f7
:10293800e14f520018003a0084de8000040078005d
:10294800cb01070064c42100144278008483fb0093
:1029580064c42100144278008482fb00240820000b
:1029680004aab90004027800f002420004ac210075
:10297800048242009442900004c8b30004c3720069
:102988002408200004bab9008402780004ad2100ac
:1029980004824200164298004e4a90000402fb004e
:1029a800cfa2de004e039000de0390000602420034
:1029b80087824a004407980055079800c7fc3700eb
:1029c8000600fa000042eb00344798000206200097
:1029d800f10f2000803d220080f807000042eb0044
:1029e800244798000002eb00040f78004f003700de
:1029f8001e027800c222dd008435220004824200d3
:102a080094427800454798004e429000e04f5200ab
:102a18004a0032004e4290000482fb006123b90054
:102a2800c4ff2f00f5ff2f000602420087824a00ec
:102a3800b600200007002000860f5200878f5a003a
:102a480039003e00046001000b0037002600370003
:102a5800170037000800370033003700320037000e
:102a680031003700300037002f0037002e003700c4
:102a78002d0037001c0037002e4290000482fb0016
:102a88006322b900040278000483e8001e0278007b
:102a98004222dd00e3024200843522000482420023
:102aa80094427800843d220004024300054a7800dd
:102ab8002e4290000482fb006322b90004027800d1
:102ac8000403e8001e0278004222dd008482e80048
:102ad800843522000482420094427800843d22001a
:102ae80004024300054a78002e4290000482fb004d
:102af8006322b900040378001e0278004222dd0038
:102b08008402e8008435220004824200944278005e
:102b1800843d220004024300054a78002e429000ba
:102b28000442e800244798001e0fe8001e027800bf
:102b3800ff0f5200aeff3400010037000000000014
:102b48000042eb0034479800320137003e429000c3
:102b58008402fb00843d2200048242001442780073
:102b6800e14f420030013200d4e98000cfa2de00fc
:102b7800a600200007002000860f5200878f5a0009
:102b8800ce003e00046001000a0037001400370040
:102b9800210037002e0037003c0037004b0037007b
:102ba8007e003700810037008c003700970037001f
:102bb800a10037003e4290008402fb00843d2200c1
:102bc8000482420014427800f04f4200b8003a00f4
:102bd800d4e980000402e800d4e98800b70037008f
:102be8003e4290008402fb00843d220004824200a1
:102bf80014427800e04f520004003a00d4e9800003
:102c08000402e800d4e98800ac0037000002eb00b9
:102c1800d4e98800a90037003e4290008402fb00f6
:102c2800843d22000482420014427800e14f5200a1
:102c380004003a00d4e980000402e800d4e98800de
:102c48009e0037000002eb00d4e988009b003700a3
:102c58003e4290008402fb00843d22000482420030
:102c68009442780084c5b30084cf520004003a002f
:102c7800d4e980000402e800d4e988008f00370016
:102c88000002eb00d4e988008c0037003e42900037
:102c98008402fb00843d2200048242001442780032
:102ca800e24f520006003a00d4e980000402e8002e
:102cb800d4e988000002eb00e4e988007f003700cf
:102cc8000002eb00d4e988007c0037003e42900007
:102cd8008402fb00843d22000482420014427800f2
:102ce800e94f420016003200d4e980000402e800ef
:102cf800d4e988003e4290008402fb00843d220013
:102d0800048242001442780084427800e4d321000f
:102d1800054a780064c42100144278008482fb00cc
:102d28002408200004aab9008402780024ad2100f8
:102d38000482420015c0b300154298005f003700b6
:102d48000002eb00d4e9880064c421001442780032
:102d58008482fb00e6e980002408200004aab90068
:102d68008402780004b4210004824200060a780034
:102d780064c42100144278008482fb0024082000e7
:102d880004aab9008402780024ad2100048242001c
:102d980025c0b3001542980048003700d4e98000e8
:102da8000402e800d4e9880044003700d4e9800030
:102db8000402e800d4e988003e4290008402fb0047
:102dc800843d220004824200144278008442780044
:102dd800f4d32100054a780038003700d4e9800090
:102de8000402e800d4e988003e4290008402fb0017
:102df800843d220004824200144278008442780014
:102e080004d42100054a78002c003700d4e980005a
:102e18000402e800d4e9880014d421008042eb00c1
:102e2800054a7800520120008000eb0020d42100e0
:102e38006af70700210037003e4290008402fb0039
:102e4800843d22000482420014427800e04f520080
:102e580004003a00d4e980000402e800d4e98800bc
:102e68001600370014d4210014427800f34f5200a2
:102e780011003c0014d42100144278008402fb00a5
:102e88003e4390008603fb00863d220006834300f4
:102e9800164378008643780026d4210007f37a0089
:102ea8008442e80014d42100054a78000300370062
:102eb800000000000100370000000000d4e9800095
:102ec800eb0f520050003a00e4d32100144278007e
:102ed8000402fb00e10f520012003200e20f520020
:102ee80028003200e00f520045003a0064c4210077
:102ef800144278008482fb002408200004aab90048
:102f080004027800f602420004ac21000482420068
:102f18001201200021d42100040078003cf70700aa
:102f28003700370004d4210014427800ff4f5200c4
:102f38000b003c008515220004d4210014427800bf
:102f48000402fb004422dd0004824200f20020005b
:102f580021d42100040078002df70700280037004d
:102f680004d42100144278000402fb00c422dd00ce
:102f780084152200048242008042eb00054a780052
:102f88001f003700e4e9800005d42100954278004d
:102f980005437800178020007822b90004027800e1
:102fa80004824300064a7800e4e98000f5d3210052
:102fb8009542780005437800078020007822b90000
:102fc8000402780004824300064a7800e4e980009d
:102fd8007822b900040278008482e8000480200086
:102fe800048242000402e80021d421000400780091
:102ff80001f70700e4e980000402e800e4e988003a
:1030080054002000d4e988003e4290000442e800c1
:1030180034479800be429000f4c5b30084cf5200f4
:10302800cafe3400010037000000000064c421001b
:10303800144278008482fb002408200004aab90006
:1030480004027800f202420004ac2100048242002b
:1030580014429000e24f520003003a0084de8000e0
:1030680004007800020007000080fa000000060053
:103078000600fa00200798002e0290000402e900da
:10308800140798000002eb00040f7800ae00370028
:103098001e027800e00f520023003a002e02900032
:1030a800e00f520020003a0064c421001442780066
:1030b8008482fb002408200004aab90004027800d6
:1030c800f602420004ac21000483420064c42100db
:1030d800144278000480fb001e0278007822b900b0
:1030e80084037800240820000482b90004027800d0
:1030f80004824300a50320008482420004ac21001e
:10310800048242000402e8001201200086007800d0
:1031180004007800bef607001e0290000402e800d2
:1031280014079800870037001e027800e20f52004b
:1031380023003a0086de800064c42100144278002f
:103148008482fb002408200004aab9000402780045
:10315800050820008482420004ac21000482420059
:10316800140278000402e900840f530014003a00a6
:1031780064c42100144278008483fb001e02780096
:103188007822b900040378002408200004bab900a2
:103198000402780004024300a50320008482420050
:1031a80004ac2100048242000402e800120020005e
:1031b80021d428000400780081f607006500370054
:1031c80064c42100144278000480fb001e029000b1
:1031d8007822b900040278001580200065437a003f
:1031e8001e0278007822b9008403780024082000a1
:1031f8000482b900040278008482430084af21006d
:10320800048242001642980064c4210014427800e7
:103218000480fb001e0290007822b90004027800a6
:103228000580200065437a001e0278007822b900e4
:1032380084037800240820000482b900040278007e
:103248008482430084af210004824200064a780049
:103258001e027800e10f52001e003a001e02900084
:103268007822b900040278001580200065427a00af
:10327800ff4f520017003e00861522001e029000e4
:103288007822b900040278001580200065427a008f
:103298000482fb004422dd000403430064c42100cf
:1032a800144278008482fb002408200004aab90094
:1032b80004027800850220008482420004ac2100c8
:1032c80004824200f20020008600780004007800a2
:1032d8004ff607001e0290007822b9000402780019
:1032e8008482e80004802000048242000403e8008d
:1032f80064c42100144278000480fb001e02780098
:103308007822b90084037800240820000482b900d8
:103318000402780004824300a5032000848242004e
:1033280004ac2100048242000402e8008600780010
:103338000400780030f607001e0290000402e8003e
:10334800140798001e0fe8001e027800e20f5200d2
:103358004fff34000080fa00000006000000fa0069
:10336800024020008000eb0080d521001bf60700fa
:10337800644422008042eb00054a7800744422002d
:103388008042eb00054a78009416800004427800d9
:10339800f842620024442200054a780024442200ae
:1033a800144278000402fb0043a2de008442780045
:1033b80024442200054a78002444220094427800dc
:1033c80044442200054a780044cf21008042eb00a3
:1033d800054a780064c42100144278008482fb0006
:1033e8002408200004aab9008402780024ad210032
:1033f800048242008042eb00154298000080fa00e7
:10340800000006000200fa00c542a9000002eb0015
:10341800040f7800010037001e0fe800f470220046
:103428009e027800848f5200fbff3400c542a8003a
:10343800e0cab300b000070000cab300ca00070022
:10344800f0c3b3008d0007000040eb00be0007008a
:103458000040eb005f000700e0c8b3009e000700d3
:1034680050c0b300c800070020c0b3003b000700ed
:1034780000cab3006f00070000ccb300ac0007001f
:1034880020c1b300d0000700f3c3b300f2c3b300f8
:10349800f1c3b300f0c3b3001f00070000c0eb0086
:1034a8005400070000c0eb005a00070010cfb3001b
:1034b800bd00070000c4b300cb00070040cab3003a
:1034c8006200070060cab30066000700f0cab300d4
:1034d800890007000080fa00000006000200fa00d8
:1034e800004f78009e4278006fc262000440780066
:1034f800cb0007009e4278000582fb004422de00d4
:10350800044278007042420004407800c40007007a
:103518000080fa00000006000400fa00004f78005e
:1035280011479800224798003347980010c9b30004
:10353800bb0007001e407800b90007001e4090003d
:10354800b70007002e409000b50007003e409000ed
:10355800b30007000080fa00000006000200fa002d
:10356800004f780000c2b300ad0007001e4078008d
:10357800ab0007000080fa00000006000200fa0015
:10358800004f78001147980010c2b300a40007004c
:103598001e407800a20007001e409000a00007000f
:1035a8000080fa00000006000200fa00004f7800d0
:1035b8001147980020c2b300990007001e40780008
:1035c800970007001e409000950007000080fa0051
:1035d800000006000200fa00004f780004c4b3009f
:1035e8001e427200044078008d0007000080fa0037
:1035f800000006000200fa00004f780010c8b3006f
:10360800870007001e407800850007000080fa0048
:10361800000006000200fa00004f780020c8b3003e
:103628007f0007001e4078007d0007000080fa0038
:10363800000006000200fa00004f78001e407800e3
:10364800770007000080fa00000006000200fa0078
:10365800004f78001e407800710007000080fa00d3
:10366800000006000200fa00004f78001e407800b3
:103678006b0007000080fa00000006000200fa0054
:10368800004f780080cab300650007001e4078002c
:10369800630007000080fa00000006000200fa003c
:1036a800004f780011479800b0cab3005c000700cb
:1036b8000040eb005a0007001e4078005800070041
:1036c8001e40900056000700c0cab300540007000f
:1036d8000080fa00000006000200fa00004f78009f
:1036e800d0cab3004e0007001e4078004c00070007
:1036f8000080fa00000006000200fa00004f78007f
:103708001e407800460007000080fa00000006000e
:103718000200fa00004f780004cbb3001e4272008a
:10372800044078003e0007000080fa000000060010
:103738000200fa00004f78001e40780038000700a9
:103748000080fa00000006000200fa00004f78002e
:1037580030cdb300320007001e407800300007006b
:103768000080fa00000006000200fa00004f78000e
:1037780050cdb3002a0007001e407800280007003b
:103788000080fa00000006000200fa00004f7800ee
:1037980080cdb300220007001e40780020000700fb
:1037a8000080fa00000006000200fa00004f7800ce
:1037b80090cdb3001a0007001e40780018000700db
:1037c8000080fa00000006000200fa00004f7800ae
:1037d800a0cdb300120007001e40780010000700bb
:1037e8000080fa00000006000200fa00004f78008e
:1037f800b0cdb3000a0007001e407800080007009b
:103808000080fa00000006000200fa00004f78006d
:103818001e407800020007000080fa000000060041
:103828000800fa00604798006e4290000482fb008e
:103838007f0f62006e4290008482fb00040e20001d
:10384800048262004222dd00140798000440200030
:10385800240798002e0290009e0272001e0290001b
:103868000502720024079800cca2a900cc82a90006
:10387800ccc2a9002e02900024168800ccc2a80051
:10388800cc82a8000080fa00000006000800fa00b8
:10389800604798006e4290000482fb007f0f620030
:1038a8006e4290008482fb00040e200004826200b5
:1038b8004222dd00140798000440200024079800e5
:1038c8002e0290009e0272001e02900005027200f5
:1038d80024079800cca2a800cc82a900ccc2a900d9
:1038e8002e02900024168800ccc2a800cc82a80022
:1038f8000080fa00000006001200fa000057980045
:103908000e50900082ff07000040eb00f3fe070016
:103918000042eb00044f78003f0037000042eb0004
:1039280014479800120037001e4290000402fb0062
:103938008e5290008583fb009e4290000503fb0099
:103948009e02fb00c33bdd00068343004433dd00d9
:103958008502430086d52100e6c27a0004024700aa
:10396800654298001e4290000442e80014479800ff
:103978001e429000e74f5200ebff34000002eb00bc
:1039880024079800200037000002eb007407980015
:103998000042eb0024479800120037002e429000a6
:1039a8000402fb0067021200040247006442900010
:1039b800644f98007e029000040242007407980049
:1039c8002e4290000402fb0067021200ee4a9000ab
:1039d80004024700654298002e4290000442e80025
:1039e800244798002e429000e74f5200ebff340026
:1039f8007e4a900004407800a4ff07002e02900041
:103a08000402e800240798002e029000e70f5200f5
:103a1800ddff34001e4fe8001e427800ef4f5200d1
:103a2800beff34000080fa00000006000000fa0023
:103a38009416800004427800f84262002444220070
:103a4800054a780024442200144278000402fb004e
:103a580043a2de008442780024442200054a78000c
:103a680024442200944278004444220014427800fe
:103a780084cf5200520032003444220014427800ad
:103a88000402fb00e00f520003003200e10f520075
:103a980027003200460037004444220014427800d0
:103aa8008442780035c0b20054442200054a7800a8
:103ab80024442200944278004444220014427800ae
:103ac80004c26a00e14f520009003a00644422002f
:103ad80015c0b300054a7800344422001442780027
:103ae8008442e80034442200054a78003000370058
:103af800244422009442780044442200144278006e
:103b080004c26a00e24f520028003a0074442200be
:103b180015c0b300054a78003444220014427800e6
:103b28008442e80034442200054a78002000370027
:103b3800244422009442780054442200144278001d
:103b480084cf52000f003a006444220014427800e7
:103b5800e04f52000400320054cf210015c0b300da
:103b6800054a7800070037007444220014427800a0
:103b7800e04f52000300320064cf210015c0b300ab
:103b8800054a7800644422008042eb00054a780028
:103b9800744422008042eb00054a78003444220035
:103ba8008042eb00054a7800010037000000000061
:103bb800244422009442780044442200054a7800b4
:103bc8000080fa00000006000200fa0004582000f5
:103bd8001412880014002000241288008400280091
:103be800041288000200370044128000040f780095
:103bf800051280000402200004826200e00f5200d7
:103c0800f9ff32008540a9009540a80044058000ce
:103c18000480a0000490a10004a0a100440588002d
:103c280040c2a90041e2a8000080fa000000060096
:103c38000600fa00100798004147980041e2a900e1
:103c48004e4290000482fb00e421890005128000a6
:103c58000408200004826200e00f520003003a00ca
:103c6800e42181000402e900e42189001e02900099
:103c7800c42189004e4290000482fb00f42189008f
:103c880041e2a800041280000420a1000430a00032
:103c98000440a1000412880002003700441280008a
:103ca800040f7800051280000402200004826200dc
:103cb800e00f5200f9ff320008003700c4218100ec
:103cc80094027800451288000482e800c421890023
:103cd800e42181000402e900e42189000412800043
:103ce80062026200e00f5200f4ff32000080fa0026
:103cf800000006000000fa00b3ff07000080fa0089
:103d080000000600849fbe003400f8000400200074
:103d1800a40188008400fa00f52181001404200021
:103d2800848f520033003a00441280001407980030
:103d3800f42181000402e900f42189009e02900028
:103d480004f02f008482620004502e00848f5200f9
:103d58001d003a001e0290008442780084d221009f
:103d6800054a780084d2210014427800e04f5200be
:103d78000c00350084d2210014427800e74f52002d
:103d880008003c0085d5210084d221001442780027
:103d98000402fb004722dd0004824200d42189008e
:103da8000900370084d2210014427800e84f5200fd
:103db80003003a0044bc2100d421890002003700e6
:103dc80064024700d42189009e02900004f02f006d
:103dd8008482620004e02a00848f520005003a00c1
:103de80084352200d42189000444220015c0b30080
:103df800054a7800f4218100e00f520012003200d9
:103e0800041280004822de00674262000482fb0040
:103e1800040f780009003700d42181004512800082
:103e2800050a78000482e800d4218900f421810081
:103e38000402e900f42189001e0fe9001e0278003f
:103e4800e00f5200f4ff3c00e4218100e00f520033
:103e58001000320008003700c42181009402780065
:103e6800451288000482e800c4218900e421810009
:103e78000402e900e4218900041280006202620061
:103e8800e00f520003003a00e4218100e00f5200e5
:103e9800f1ff3c00f4218100e80f520005003c00ce
:103ea800041280000420a0000430a1000440a100f6
:103eb80004128800f4218100e00f52000a003a0041
:103ec8000444220014427800e04f520006003200f9
:103ed80044cf210015c0b300054a780004442200ed
:103ee8008042eb00054a78008540a9000080fa006e
:103ef8003400f9004f02be00004006000400fa003a
:103f0800000f7800110798000000000004128000dc
:103f180062026200e00f5200fcff3a0015128000b6
:103f28000440200004826200e00f520002003a00c0
:103f38000002eb000100370014002000e10f5200de
:103f480004003a001e027800140278004412880027
:103f5800050037001e027800144278000482fb0036
:103f680044128800000000000512800004022000ae
:103f780004826200e00f5200fbff3a001512800035
:103f88000440200004826200e00f520002003a0060
:103f98000002eb000100370014002000e10f52007e
:103fa80004003a001e02900045128000050a7800bd
:103fb8000400370044128000844278001e029000fa
:103fc800054a78000080fa00000006001a00fa008e
:103fd800200f9800310f9800420f98000002eb0064
:103fe800040f78000002eb00140798000002eb00b1
:103ff800040f98000002eb00140f980015128000bf
:104008000440200004826200e00f520002003a00df
:104018000002eb000100370014002000740798002c
:104028007e029000e10f520006003a0024002000b2
:10403800440798003e0a90000402d100340f98000b
:104048000200370014002000440798002e0a900050
:10405800e00f520005003a000002eb0064079800e8
:104068007202470024079800040037004e029000af
:10407800640798002e0a9000240798004e0a9000c2
:10408800e00f520005003a000002eb0054079800c8
:104098007002470034079800050037004e02900070
:1040a800540798004e0a900034079800000000005a
:1040b8000412800062026200e00f5200fcff3a0026
:1040c8002d0037001e029000e70f520013003e003b
:1040d8007e029000e10f520004003a002e02900088
:1040e8001402780044128800040037002e02900061
:1040f800144278000482fb0044128800ae0290004b
:104108006e02900004824200240798001e0fe80007
:104118001e0290000402e8001407980005128000af
:104128000402200004826200e00f520012003a00ec
:104138007e029000e10f520004003a003e02900017
:1041480045128000050a78000400370044128000f8
:10415800844278003e029000054a7800be02900032
:104168005e02900004824200340798001e0290000c
:104178000402e900140798003e0a90009e027800a5
:10418800848f5200cfff39001700370005128000d6
:104198000402200004826200e00f520012003a007c
:1041a8007e029000e10f520004003a003e029000a7
:1041b80045128000050a7800040037004412800088
:1041c800844278003e029000054a7800be029000c2
:1041d8005e02900004824200340798001e0290009c
:1041e8000402e900140798001e029000e00f520034
:1041f800e6ff3a001e027800040078000080fa000a
:10420800000006000400fa00100798008e027800eb
:104218000e82e800850078000400780037ff070068
:104228001e027800040078000080fa0000000600f2
:104238000200fa00000f78001e007800f1ff070066
:1042480000027800040078000080fa0000000600f0
:104258000600fa00000f780011079800220798005e
:10426800ae0290001e027800050178009e009000c2
:104278000400780055ff0700000278000400780069
:104288000080fa00000006000600fa00000f78001f
:1042980011079800220798002e0190009e009000b8
:1042a8001e007800eaff070000027800040078008a
:1042b8000080fa00000006000000fa0015128000d5
:1042c8000440200004826200e00f520002003a001d
:1042d8000002eb0001003700140020000400780001
:1042e8000080fa00000006000000fa0004128000b6
:1042f800040078000080fa00000006000000fa00c0
:10430800f9ff070000027800040078000080fa0036
:10431800000006000000fa00440e28000419880076
:104328000440200014198800444220001419880011
:1043380034802000241988000002eb00441988000a
:10434800041f200084198800141980004222de000e
:104358006f4262008442780004452200054a7800d2
:1043680095a0a8000080fa00000006000000fa00ee
:10437800e8ff07000080fa00000006000000fa00cd
:104388002023a8000080fa00000006000000fa00c0
:10439800faff07000080fa00000006000000fa009b
:1043a8002023a9000080fa00000006000000fa009f
:1043b800faff07000080fa00000006000600fa0075
:1043c8002007980004302000140798000002eb0032
:1043d800040f78000b0037001e0278000402420028
:1043e800ae029000048242009e029000950278007e
:1043f800050a78001e0290000482e800140798005d
:104408001e0fe80004452200144278000482fb00d5
:104418009e0f5200f0ff3c001e0278000400780056
:104428000080fa00000006000200fa00000f780081
:104438001e007800e1ff0700000278000400780001
:104448000080fa00000006000000fa00041880004e
:10445800040078000080fa00000006000000fa005e
:10446800f9ff070000027800040078000080fa00d5
:10447800000006000000fa000419800004427800d9
:10448800614262000482fb0004f0a7000402ea0013
:104498000402ea004f22de0004427800044078005b
:1044a8000080fa00000006000000fa00f1ff070093
:1044b80000427800044078000080fa0000000600fe
:1044c8000200fa00000f78001e02780044198800e4
:1044d8000080fa00000006000200fa00000f7800d1
:1044e8001e007800f6ff07000080fa0000000600b2
:1044f800849fbe00869fbe003400f80004002000a0
:10450800a40188000400fa00043020001407980071
:104518001445220094427800154798001900370086
:104528000042eb00044f7800100037001e42900054
:104538000402fb009e03fb009e0290001503780016
:104548006522b90004027800070242008402420092
:1045580084c4210004824200060a78001e029000ea
:104568000482e800140798001e4fe8001e427800f5
:10457800e44f5200edff34001e4290000442e80070
:10458800144798001e4290008402fb001445220044
:10459800144278000402fb000482e800848f520071
:1045a800dfff3500144522001442780004c2e800f9
:1045b8008442780014452200054a780014452200f8
:1045c80014427800ef4f52000600340004cf210057
:1045d80015c0b300054a7800144522008042eb005c
:1045e800054a780085a0a9000080fa003400f90087
:1045f8004f03be004f02be00004006000000fa0054
:1046080004202000040c880004102000140c8800ea
:10461800d4002000240c8800240c80000442780078
:10462800674262000482fb00642289000080fa006d
:10463800000006000000fa00f0ff07000080fa0002
:10464800000006000000fa002404800064026200f2
:10465800e00f5200010032008440a9000080fa00f7
:10466800000006000000fa00f6ff07000080fa00cc
:10467800000006000000fa0064228100044278006d
:10468800674262000482fb0067026200260c800019
:1046980085ff2f008502630005027200240c880044
:1046a8000080fa00000006000000fa00f1ff070091
:1046b8000080fa00000006000000fa00240c8000c8
:1046c8000400a1000410a1000420a100240c88000b
:1046d8000080fa00000006000000fa00f6ff07005c
:1046e8000080fa00000006000200fa00000f7800bf
:1046f8001e027800140c88000080fa0000000600f2
:104708000200fa00000f78001e007800f6ff07008c
:104718000080fa00000006000400fa00000f78008c
:10472800110798001e027800140c88001e029000e1
:10473800040c88000080fa00000006000400fa005b
:10474800000f7800110798009e0090001e00780066
:10475800f1ff07000080fa00000006000400fa00dc
:10476800000f7800110798001e027800140c8800ca
:104778001e029000040c88000080fa000000060069
:104788000400fa00000f7800110798009e009000be
:104798001e007800f1ff07000080fa000000060004
:1047a8000400fa00000f7800110798001e02780034
:1047b800140c88001e029000040c88000080fa0087
:1047c800000006000400fa00000f780011079800a6
:1047d8009e0090001e007800f1ff07000080fa009c
:1047e800000006000000fa00240480004222de00d7
:1047f800614262000482fb0004f0a7000402ea00a0
:104808000402ea004f22de000442780004407800e7
:104818000080fa00000006000000fa00f1ff07001f
:1048280000427800044078000080fa00000006008a
:104838000400fa00100798001e029000e00f5200d2
:104848000a003a00240c80004422de006142620023
:104858000482fb0004f0a7000402ea000402ea0054
:104868004f22de00044f78000100370000000000ee
:104878001e427800044078000080fa00000006001c
:104888000200fa00000f78001e007800e8ff070019
:1048980000427800044078000080fa00000006001a
:1048a8000000fa0004022800f40888000002eb0067
:1048b800a4088800047d2000d40888008760a90027
:1048c8009760a800844422008042eb00054a7800e3
:1048d8000080fa00000006000000fa00f0ff070060
:1048e8000080fa00000006003600f800809fbe0035
:1048f800829fbe00849fbe00869fbe000000fa0013
:104908004400070094442200144278008442e800de
:1049180094442200054a78008444220015c0b3005c
:10492800054a78008760a9000080fa004f03be009e
:104938004f02be004f01be004f00be003600f90016
:10494800004006000200fa00000f78001e027800fe
:10495800d4088800844422008042eb00054a78008d
:104968000080fa00000006000200fa00000f78003c
:104978001e007800f3ff07000080fa000000060020
:104988000000fa00d4088000040078000080fa00d3
:10499800000006000000fa00f9ff07000002780096
:1049a800040078000080fa00000006000200fa0007
:1049b800000f78001e027800a408880084442200b2
:1049c8008042eb00054a78000080fa0000000600eb
:1049d8000200fa00000f78001e007800f3ff0700bd
:1049e8000080fa00000006000000fa00a408800019
:1049f800040078000080fa00000006000000fa00b9
:104a0800f9ff070000027800040078000080fa002f
:104a1800000006000000fa0024cf210015c0b300f2
:104a2800054a78000080fa00000006000000fa003d
:104a3800844422008042eb00054a78009760a80071
:104a48001fe1a8000080fa00000006000000fa003c
:104a5800f6ff07000080fa00000006000000fa00d8
:104a68001fe1a9009760a9000080fa000000060075
:104a78000000fa00f9ff07000080fa0000000600b5
:104a88000200fa0084442200144f78001e42780085
:104a9800e04f520003003200844422008042eb00c1
:104aa800054a78001e427800044078000080fa0029
:104ab800000006000000fa00f1ff0700004278003d
:104ac800044078000080fa00000006000000fa00a8
:104ad8009444220014427800044078000080fa00d0
:104ae800000006000000fa00f8ff07000042780006
:104af800044078000080fa00000006000000fa0078
:104b0800944422008042eb00054a78000080fa00b5
:104b1800000006000000fa00f8ff07000080fa0015
:104b2800000006000000fa0004022800940888002b
:104b38000002eb0054088800042020007408880054
:104b4800a44422008042eb00054a78000080fa0065
:104b5800000006000000fa00f2ff07000080fa00db
:104b6800000006000000fa00250480000410200060
:104b780004826200e00f520009003200b4442200af
:104b8800144278008442e800b4442200054a7800c0
:104b9800a444220015c0b300054a78008500a90086
:104ba8000080fa00000006000000fa00edff070090
:104bb8000080fa00000006000200fa00000f7800ea
:104bc8001e02780074088800a44422008042eb008a
:104bd800054a78000080fa00000006000200fa008a
:104be800000f78001e007800f3ff07000080fa002d
:104bf800000006000000fa00740880000400780035
:104c08000080fa00000006000000fa00f9ff070023
:104c180000027800040078000080fa000000060016
:104c28000200fa00000f78001e027800540888007d
:104c3800a44422008042eb00054a78000080fa0074
:104c4800000006000200fa00000f78001e0078003d
:104c5800f3ff07000080fa00000006000000fa00d9
:104c680054088000040078000080fa000000060064
:104c78000000fa00f9ff070000027800040078003d
:104c88000080fa00000006000000fa00a444220098
:104c98008042eb00054a780013e1a8000080fa0082
:104ca800000006000000fa00f7ff07000080fa0085
:104cb800000006000000fa0013e1a9000080fa00d5
:104cc800000006000000fa00faff07000080fa0062
:104cd800000006000200fa00a4442200144f7800e5
:104ce8001e427800e04f520003003200a444220024
:104cf8008042eb00054a78001e42780004407800a4
:104d08000080fa00000006000000fa00f1ff07002a
:104d180000427800044078000080fa000000060095
:104d28000000fa00b44422001442780004407800dd
:104d38000080fa00000006000000fa00f8ff0700f3
:104d480000427800044078000080fa000000060065
:104d58000000fa00b44422008042eb00054a7800c3
:104d68000080fa00000006000000fa00f8ff0700c3
:104d78000080fa00000006000000fa00f478200025
:104d88002416880004012000041688000002eb00a5
:104d980004168800f47920002416880004062000f0
:104da80064168800f4f12f0044168800f4f02f00f0
:104db80044168800040720006416880004022000b6
:104dc800a4168800f43520008416880034e02100f9
:104dd80064198800f4e0210064198800153a8000fd
:104de800f40b200004836200640420007505200091
:104df80027742000844b7800854b7800864b780018
:104e080035368000f40f2e008482620004202100d1
:104e180005027200343688004535800004fe2f00f4
:104e2800048262006401b30044358800b53680000e
:104e3800f40f2e00848262000470200005027200c4
:104e4800b436880045358000f40f2e008482620055
:104e58000480210005027200443588005535800021
:104e680004fe2f00048262009401b30054358800c8
:104e7800153a800004042000050372006404200031
:104e88007505200027742000844b7800854b780036
:104e9800864b78009660a8008660a9001426210039
:104ea80014038800140620005403880004802f008f
:104eb8000403880004802f00440388000080fa005f
:104ec80000000600849fbe003400f80004002000a3
:104ed800a40188000000fa0034cf210015c0b300f7
:104ee800054a78008660a9000080fa003400f900bd
:084ef8004f02be00004006005d
:020000040000fa
:104f00004824000002000000000000004a240000c5
:104f100002000000000000004c240000020000001d
:104f2000000000004e24000002000000020000000b
:104f300001000000382400000a000000000000000a
:104f400050240000020000000000000000080000e3
:104f50005815000000000000581d0000000400006b
:104f60000000000058230000800000000000000046
:104f7000d82300006000000000000000582100005d
:104f800000020000000000004224000006000000b3
:084f9000000000000000000019
:020000040000fa
:104f98000000fa000900070077ff07000d0007006e
:104fa800dcfc070008fb070094fd0700ddfe070096
:104fb8003bfe07000080fa00000006000000fa002f
:104fc80004002300243a88004227a9000080fa0040
:104fd800000006000000fa00540580000440a0000c
:104fe8000450a1000460a1005405880084058000d5
:104ff80004c0a00004d0a10004e0a100840588003a
:085008000080fa000000060020
:020000040000fa
:020000040001f9
:0457f8009ff9000015
:020000040000fa
:020000040001f9
:0457fc007f3f0000eb
:00000001FF
