:020000040000fa
:080000000002040000000000f2
:020000040000fa
:10000800d2020000d2020000d2020000d202000098
:10001800d2020000d2020000d2020000d202000088
:10002800d2020000d2020000d2020000201f00000d
:1000380078180000d2020000d20200004820000018
:10004800d2020000d2020000d2020000d202000058
:10005800d20200002218000082180000d20200001c
:10006800d2020000d2020000d2020000961b00005b
:10007800d2020000d2020000d2020000d202000028
:10008800d2020000d2020000d2020000d202000018
:10009800d2020000d2020000d2020000d202000008
:1000a800d2020000d2020000d2020000d2020000f8
:1000b800d2020000d2020000d2020000d2020000e8
:1000c800d2020000d2020000d2020000d2020000d8
:1000d800d2020000d2020000d2020000d2020000c8
:1000e800d2020000d2020000d2020000d2020000b8
:1000f800d2020000d2020000d2020000d2020000a8
:10010800d2020000d2020000d2020000d202000097
:10011800d2020000d2020000d2020000d202000087
:10012800d2020000d2020000d2020000d202000077
:10013800d2020000d2020000d2020000d202000067
:10014800d2020000d2020000d2020000d202000057
:10015800d2020000d2020000d2020000d202000047
:10016800d2020000d2020000d2020000d202000037
:10017800d2020000d2020000d2020000d202000027
:10018800d2020000d2020000d2020000d202000017
:10019800d2020000d2020000d2020000d202000007
:1001a800d2020000d2020000d2020000d2020000f7
:1001b800d2020000d2020000d2020000d2020000e7
:1001c800d2020000d2020000d2020000d2020000d7
:1001d800d2020000d2020000d2020000d2020000c7
:1001e800d2020000d2020000d2020000d2020000b7
:0801f800d2020000d202000057
:020000040000fa
:10020800d2020000d2020000d2020000d202000096
:10021800d2020000d2020000d2020000d202000086
:10022800d2020000d2020000d2020000201f00000b
:1002380078180000d2020000d20200004820000016
:10024800d2020000d2020000d2020000d202000056
:10025800d20200002218000082180000d20200001a
:10026800d2020000d2020000d2020000961b000059
:10027800d2020000d2020000d2020000d202000026
:10028800d2020000d2020000d2020000d202000016
:10029800d2020000d2020000d2020000d202000006
:1002a800d2020000d2020000d2020000d2020000f6
:1002b800d2020000d2020000d2020000d2020000e6
:1002c800d2020000d2020000d2020000d2020000d6
:1002d800d2020000d2020000d2020000d2020000c6
:1002e800d2020000d2020000d2020000d2020000b6
:1002f800d2020000d2020000d2020000d2020000a6
:10030800d2020000d2020000d2020000d202000095
:10031800d2020000d2020000d2020000d202000085
:10032800d2020000d2020000d2020000d202000075
:10033800d2020000d2020000d2020000d202000065
:10034800d2020000d2020000d2020000d202000055
:10035800d2020000d2020000d2020000d202000045
:10036800d2020000d2020000d2020000d202000035
:10037800d2020000d2020000d2020000d202000025
:10038800d2020000d2020000d2020000d202000015
:10039800d2020000d2020000d2020000d202000005
:1003a800d2020000d2020000d2020000d2020000f5
:1003b800d2020000d2020000d2020000d2020000e5
:1003c800d2020000d2020000d2020000d2020000d5
:1003d800d2020000d2020000d2020000d2020000c5
:1003e800d2020000d2020000d2020000d2020000b5
:0803f800d2020000d202000055
:020000040000fa
:10040000af0021000e7f22000e01880000000000d6
:10041000000020000000e000020032000001200087
:10042000200288000c000700401c22000100200070
:100430000f000700000020000000e0000200320072
:10044000000002000000000064060200000000003e
:100450000040da000000fe00c00220000000e000c2
:1004600002003200002020009001880000000600f9
:10047000a1028800800078000000eb001a0037001d
:10048000e280400054a0b4009101ba00e280400034
:1004900054a0b4009102ba00e280400054a0b4001d
:1004a0000002eb00472bde00f507b200a601880032
:1004b000602ce10008003a000049eb000201e8006e
:1004c000020039003420ec0002f0a0008301e900b2
:1004d000f9ff3e00040037006128e100010032000e
:1004e0000082eb00040007001101ba000200e000e6
:1004f000e3ff3a000000060004d0a300e20f490029
:100500001c003900810278003549ba000201e80078
:10051000020039003420ec0002f0a0008301e90061
:100520000f0032002549ba000201e800020039003c
:100530003420ec0002f0a0008301e9000800320042
:100540000400e0000600320015c9ba000201e8000c
:10055000020039003420ec0002f0a0008301e90021
:100560008180e80054a0b4000300e000e2ff3a00fc
:10057000000006009102ba00055978008301e900e5
:10058000f7ff3200c82ade00055978008301e90030
:10059000f3ff32000400e000f1ff320011d9ba008d
:1005a000eeff37000040da000000fe0003f0a2007a
:1005b000889fbe008a9fbe008c1f7800f80007004d
:1005c000ff0033006450e1004f0032006420e1007e
:1005d0005200320003826c0007003b000905d00086
:1005e0000306d000820f54000c065d0002003900a3
:1005f00002003200890178000306780085825500e8
:1006000004003d000003fd008103fd008502ea00b7
:100610008b854200840f720002003b0060001000d6
:10062000e08018006011b8000005eb007a28e100b6
:100630000a00390006007800c75ddd00f707b20048
:10064000878075002d003700828171000a017800d3
:10065000610560008180d1000080d3008502e9003f
:10066000f9ff3b00060440008784480002003b007d
:1006700060041400e0841c000988a3000700320015
:100680008a81710082817100610164008904d10056
:100690000884d3008b05e800170037000978a30011
:1006a00013003a000b00e000130034008b05e90052
:1006b0000804440089844c000a4474000978a300ab
:1006c0000d003a000b00e000070034008b05e90044
:1006d0000804440089844c0001003a000b0020000b
:1006e0000978a300f7ff32000001eb000200370099
:1006f000828171000a0178006e0007000cf0a700eb
:1007000001f0a000b70037006420e10002003a00c9
:10071000838f6c00b70033000801be000200be00ea
:10072000b0003700889fbe008a9fbe008c1f7800f3
:100730009b000700a200330003866c006450e100b8
:100740002e0032006420e100330032006150e100ed
:100750002f0032006120e100310032008585550014
:10076000eb07b00009002000080420000500370056
:100770000804440089844c000a0031000603430049
:1007800087834b000001530081815b00f8ff330039
:100790000203be000800a0000804440089844c0045
:1007a000f6ff3900c639dd00830173000100320015
:1007b000130020008904d1000884d3000998a30005
:1007c000050032000800a7000300a0008904d10042
:1007d0000884d3008b05e8008904d1000884d30085
:1007e0000001eb000281d2003200070001f0a100fd
:1007f0000cf0a70001f0a0007a0037006420e100af
:100800007c0032000801be000200be00f7ff370086
:100810006120e100770032006000b800f3ff37008c
:100820000000200001f82700f0ff3700f4ff2f0040
:10083000a70037000001be00440007000470a700b5
:1008400003f0a10003f8a30013003a006509b1000a
:1008500010003200090035006928e100020035006f
:1008600001002800000005000000400081804800d1
:100870008502e900fcff3a0000000600f88f420004
:10088000050035008100d1000080d3008502e8001a
:10089000fcff3a00000006008000eb0000000500ad
:1008a0004f89de0082017800a40037006011b80093
:1008b000b200370081002000618055000b003d0030
:1008c0000b00200061fe2f000100e1001d0034003c
:1008d00082817100610164008904d1000884d30021
:1008e0000000e800faff3a00710020006100640097
:1008f000030070000200600009003200610444003f
:10090000e0844c000988a500050032008b05e80052
:100910006808e10002003a008904d1000884d3008d
:10092000f20f20000258e10005003d00c75ddd0028
:10093000f907b20089807500080078000000060001
:100940000bf827008b00780000000500c70ade00c6
:10095000f107b200f50fb20008003200e1cf42000b
:10096000020032000170a00024000500810f700019
:10097000010032000408050044000500810f7000ea
:1009800002003a00140005008502e9000000400062
:1009900081c04800fcff3b000170a000240005005e
:1009a0000004be00e9ff07000003be000405be000e
:1009b0000200be00e5ff0700844f7500000006003e
:1009c0000200be006450e100050036006420e10032
:1009d000020036000968a30001003a000800be00ca
:1009e0000160a0004f0678004f05be004f04be0016
:1009f00000000600f0ff2f00f1ff2700f9ff37008d
:100a0000889fbe008a9fbe008c1f7800e4ff07000d
:100a1000ebff330003866c006450e10024003200d9
:100a20006420e100270032006150e1002200320022
:100a30006120e100210032008b854200eb07b1000c
:100a40000134b800003ab8000804420089844a0022
:100a5000013ab8000030b8008880400009014a001f
:100a6000040033000000400081804800020149007a
:100a70008b05e900c909dd00830170000100320027
:100a800013002000c814de004814dd004709de0012
:100a90001200b200c808de000884700085ff07005d
:100aa00001f0a1000cf0a70001f0a000cdff37007d
:100ab0006120e100cfff32000801be000200be004d
:100ac000f7ff37006150e100fcff3a00c9ff370033
:100ad000889fbe008a9fbe00841f7800b0ff070079
:100ae0004f00780011003300f0ff2f00838f6c005f
:100af00006003b00040565000a00a7000800370057
:100b000009f0a6001000200008003700820f5400f2
:100b1000838f5c00030039001000200001003e00bc
:100b20000000200009f0a7000000ea004f05be0009
:100b30004f04be000000e00000000600881f78009f
:100b4000030478000300e00007003d00600010008f
:100b5000e080180060011900e081190002003b00ec
:100b600001f02d00030037000400070008f0a70083
:100b700001f0a0004f04780000000600889fbe002e
:100b80008a9fbe000082700004027100048271001e
:100b9000260032000004be000200be006011b80052
:100ba0006b092000950220000182cf000a00390065
:100bb0000541b1000082cf00070039000541b100b6
:100bc0000982cf00040039000541b1000882cf003e
:100bd000010039000541b100054252001200320007
:100be0000a003b0082817100610164008100d10034
:100bf0000080d3008984d3000884d3008b05e800eb
:100c00000442e800f7ff3a000700370008044400f8
:100c100089844c0000004800818048008b05e90071
:100c20000442e900f9ff3a0022ff07004f05be0029
:100c30004f04be000000060080017800020037006b
:100c4000b15978000201e9000200e000fcff3a001f
:100c5000000006008001780002003700815978000a
:100c60000201e9000200e000fcff3a00000006007b
:020000040000fa
:100c700000000000000000000000000080460000ae
:100c80000000000000460000000000008045000059
:100c9000000000000045000000000000804400004b
:100ca000000000004044000000000000004400007c
:100cb00000000000c043000000000000804300006e
:080cc0000000000040430000a9
:020000040000fa
:100cc8000000fa00cb0d0700f602a80010c0b30020
:100cd80000e8b7000168ef000268ef000368ef0062
:100ce8000468ef001e28ef002028ef002228ef00fc
:100cf8002428ef002628ef002828ef0022042000ef
:100d08008000eb0080852000d0ff0700220420002f
:100d18008000eb00c0a52000ccff07000a68ef00a8
:100d2800070037000ac8bf007205070000a02600a8
:100d380081012000e20d0700f402a900f402a800d6
:100d480020538000614060000004a2000004e0001d
:100d5800f4ff3a00d222a80060042000202988006d
:100d68001fe5a800f128800000fe2f000080600029
:100d7800e001b300f0288800e1288000f00f2e0081
:100d8800808060000070200001007000e02888006a
:100d980005e1a8000010270021002000c80d070069
:100da8001de5a8000010270021002000c40d070041
:100db800010037000000000002c8bf000004e00086
:100dc8004c00320010002000010020007041880013
:100dd800814188000628ef0040003700304080003d
:100de800e1fe20006140780010e8b700f240800082
:100df8000341800070418000814180000202780038
:100e08000301780080017800010078000302620085
:100e1800000061008000eb00c000dd000000200041
:100e28000001be006120b8000001710081817100dd
:100e3800e00f5100e08f59001f00320010c8bf00ba
:100e48000080fb006e00b90080007800e0a9200057
:100e580000804000100078000000e00016003a0012
:100e680010c8bf000080fb00b24080006e00b900cf
:100e78008000780000aa2000008040000208780066
:100e880010c8bf000081fb006e10b9008000780018
:100e9800e0a9200000804000100078008001e800f0
:100ea8006e10b90080007800e0a9200000804000a2
:100eb8000308780000000000704180008141800034
:100ec800000040008180480070418800814188000e
:100ed800304080000000e80030408800304080004a
:100ee800f70f5000bdff34000268ef001e28ef0026
:100ef8002028ef0003c8bf000004e0004c003200c7
:100f08001000200001002000704188008141880005
:100f18000628ef004000370030408000e1fe200046
:100f28006140780010e8b70012418000234180003a
:100f3800704180008141800002027800030178003e
:100f4800800178000100780003026200000061005f
:100f58008000eb00c000dd00000020000001be00a2
:100f68006120b8000001710081817100e00f51001b
:100f7800e08f59001f00320010c8bf000080fb003e
:100f88006e00b90080007800e0a9200000804000d1
:100f980010007800e10f500016003a0010c8bf009a
:100fa8000080fb00b24080006e00b900800078002d
:100fb80020aa2000008040000208780010c8bf0066
:100fc8000081fb006e10b90080007800e0a92000c5
:100fd80000804000100078008001e8006e10b90021
:100fe80080007800e0a92000008040000308780015
:100ff8000000000070418000814180000000400036
:10100800818048007041880081418800304080001c
:101018000000e8003040880030408000f70f5000a2
:10102800bdff34000368ef002228ef002428ef00fa
:1010380001c8bf000004e000d90132001000200000
:101048000100200070418800814188000628ef00d7
:10105800cf013700304080006e00b9008000780072
:10106800e0a920000080400010007800e30f500045
:1010780075003200e30f500007003c00e10f5000fc
:1010880016003200e10f500032003c000000e00082
:101098000a003200b5013700e50f500001013200a7
:1010a800e50f5000a8003500e60f50005b01320044
:1010b800e90f500095013200ac0137003040800044
:1010c800924280006e00b9008000780040aa20009b
:1010d8000080400002087800a401370032408000f8
:1010e8006e10b90000007800e6004000e0a920007a
:1010f800808140006e10b90000007800e6004000d2
:10110800e0a92000008040001000780080007800ee
:1011180001f0a7008100ea008100e900cf08de00a5
:10112800814078000000e900800978000104e000af
:1011380089013200304080006e00b90080007800dc
:10114800e0a92000008040009100200001087800fc
:1011580086013700304080000000400080007800a1
:10116800003420000080400010007800c040880053
:1011780080428000c240800080014000e1be200023
:1011880081804100820878000000e80080428800e1
:10119800c1408000301f2000808f50000c003e00ae
:1011a800324080006e10b90080007800e0a920006d
:1011b80000804000100078008001e8006e10b9003f
:1011c80080007800e0a92000008040000308780033
:1011d800324080006e10b90000007800e600400040
:1011e800e0a92000808140006e10b900000078005e
:1011f800e6004000e0a920000080400010007800d0
:101208008000780001f0a7008100ea008100e90071
:10121800cf08de00814078000000e90080097800ee
:101228000104e0004e013200304080006e00b90039
:1012380080007800e0a92000008040009100200094
:101248000108780049013700304080000000400064
:1012580080007800003420000080400010007800f2
:10126800c04088006054800080007800c040800042
:10127800808f50001600310030408000bb0107000d
:1012880004e8b70030408000325380006e00b90097
:101298008000780060aa20000080400002087800e2
:1012a800324080006e10b90080007800e0a920006c
:1012b80000804000100078008001e8006e10b9003e
:1012c80080007800e0a92000008040000308780032
:1012d800324080006e10b90000007800e60040003f
:1012e800e0a92000808140006e10b900000078005d
:1012f800e6004000e0a920000080400010007800cf
:101308008000780001f0a7008100ea008100e90070
:10131800cf08de00814078000000e90080097800ed
:101328000104e00010013200304080006e00b90076
:1013380080007800e0a92000008040009100200093
:1013480001087800090137003040800000004000a3
:1013580080007800003420000080400010007800f1
:10136800c0408800c140800080bb2000808f5000b2
:101378000f00360030408000a24180006e00b900a6
:101388008000780000aa2000008040000208780051
:10139800304080006e00b90080007800e0a920008d
:1013a8000080400061002000010878003500370007
:1013b800324080006e10b90000007800e80040005c
:1013c800e0a92000808140006e10b900000078007c
:1013d800e8004000e0a920000080400010007800ec
:1013e8008000780001f0a7008100ea008100e90090
:1013f800cf08de00814078000000e900800978000d
:101408000104e0001f003200324080006e10b90075
:1014180080007800e0a920000080400010007800db
:101428008001e8006e10b90080007800e0a9200073
:10143800008040000308780030408000425380005c
:101448006e00b9008000780080aa2000008040006b
:1014580002087800314080003040800000004000e1
:1014680000017800003420000000410010017800dd
:101478006e08b90080007800a0aa20000080400013
:101488000208780030408000924280006e00b90067
:101498008000780040aa2000008040000208780000
:1014a800b200370030408000000040008000780023
:1014b800003420000080400010007800c040880000
:1014c800c140800080bb2000808f50000f00360094
:1014d80030408000a24180006e00b9008000780092
:1014e80000aa2000008040000208780030408000f8
:1014f8006e00b90080007800e0a92000008040005c
:1015080061002000010878003c003700205380006b
:101518004200de00614060000004e0003700320055
:10152800324080006e10b90000007800ea004000e8
:10153800e0a92000808140006e10b900000078000a
:10154800ea004000e0a92000008040001000780078
:101558008000780001f0a7008100ea008100e9001e
:10156800cf08de00814078000000e900800978009b
:101578000104e00021003200304080004253800026
:101588006e00b9008000780080aa2000008040002a
:1015980002087800c2408000304080006e00b90028
:1015a80000007800ec004000e0a920000080400026
:1015b8001000780000005100c040880020538000cf
:1015c8004300de00614060000004e00004003200d7
:1015d800c040800000f0a7000000ea00c04088007a
:1015e800c04080000000e00004003200c1408000dc
:1015f80030408000a302070004e8b70030408000b4
:10160800924280006e00b9008000780040aa200055
:101618000080400002087800540037003240800003
:101628006e10b90000007800e6004000e0a9200034
:10163800808140006e10b90000007800e60040008c
:10164800e0a92000008040001000780080007800a9
:1016580001f0a7008100ea008100e900cf08de0060
:10166800814078000000e900800978000104e0006a
:101678000a003200304080006e00b9008000780017
:10168800e0a92000008040009100200001087800b7
:1016980030408000f001070004e8b70030408000c7
:1016a80000004000800078000034200000804000e6
:1016b80010007800c0408800c1408000500420001d
:1016c800808f500011003e0030408000a241800011
:1016d8006e00b9008000780020aa20000080400039
:1016e80002087800304080006e00b9008000780061
:1016f800e0a92000008040008000eb00010878008d
:1017080030408000d401070004e8b7003040800072
:101718000000400080007800003420000080400075
:1017280010007800c0408800c140800050042000ac
:10173800808f50000d003e00304080006e00b900e0
:1017480080007800e0a92000008040008000eb00c5
:10175800010878000500370000000000030037008a
:101768000000000001003700000000007041800008
:10177800814180000000400081804800704188005d
:1017880081418800304080000000e8003040880037
:1017980030408000f70f50002efe34000168ef0043
:1017a80004c8bf000004e000690032009017800000
:1017b800610060000000e000650032000468ef008e
:1017c8000ac8bf008080fb00201020000088b900f4
:1017d800800078008085200000804000100078009c
:1017e800f00f5000150036000ac8bf008080fb00cb
:1017f800201020000088b900800078008085200033
:10180800008040001000780070005000704288008e
:101818000ac8bf008080fb00201020000088b900a3
:1018280080007800808520000080400001012000b1
:101838000108780010c0b30004e8b7000ac8bf0068
:10184800ac020700f402a900f402a8000ac8bf000d
:101858000004a2000080fb00004078000ae8b700fe
:101868000ac8bf008080fb00201020000088b90053
:101878008000780080852000008040002210200031
:101888008000eb00f1fc07000628ef002c00370071
:101898000ac8bf008080fb0030408000a280200082
:1018a800124178000204a2000282fb00324080004c
:1018b800f00141004201dd00201020000088b9003d
:1018c8000000780080004100a085200000814000d1
:1018d800c219dd002010200000a0b9000000780027
:1018e800008041008080e800808520000080400062
:1018f80030197800201178000ac8bf000081fb0069
:10190800201020000090b900800078008085200019
:1019180000804000100078008001e80020102000be
:101928000090b90080007800808520000080400089
:1019380003087800304080000000e800304088004c
:101948003140800070428000808f5000d0ff350009
:10195800205380004700de00614060000004e00082
:1019680014fd3200b002070013fd37001000fa0022
:10197800889fbe00700798007e0090006e00b90036
:1019880000007800e4004000e0a92000008040004a
:10199800100178007e0090006e00b9000000780009
:1019a8008080e800e0a92000008040001000780056
:1019b80000005100200798000000eb001007980075
:1019c800440037001e00900069004000800040007d
:1019d800c0a520000080400010007800800078003a
:1019e8002e009000808f5000370031001e009000bc
:1019f8007300400080004000c0a520000080400027
:101a080010007800cf80de00a3fb0700020024004e
:101a1800c361240041fb0700300798004107980084
:101a28002e0090008000eb009efb07003e01900016
:101a3800ce019000f0fb070050079800610798005e
:101a48001e0090006e00400080004000c0a52000ed
:101a58000080400010007800cf80de008efb070079
:101a68000001be005e009000ee009000cefa070074
:101a780050079800610798000200200003302400f6
:101a88005e009000ee009000dbfb070067fb07009c
:101a9800000f7800f00720009e007800808f50002b
:101aa80002003e0000082000000f7800f0ff23002d
:101ab8009e007800808f50000a003600f0ff230057
:101ac800000f7800080037001e0090000000e800b2
:101ad800100798001e009000e30f5000b9ff360071
:101ae8000100370000000000205380004600de009f
:101af800614060000004e000670032000ac8bf00cf
:101b08008081fb000ac8bf008080fb0020102000f5
:101b18000088b9008000780080852000008040009f
:101b2800100078004201dd00201020000098b90064
:101b38000000780080004100a0852000008040005f
:101b4800b1c0b300014878000ac8bf000084fb0098
:101b58000ac8bf008080fb00201020000088b90060
:101b68008000780080852000008040009004780084
:101b7800e0a52000904078007e00900000407800aa
:101b880000c040001902070001cbb30001417000fa
:101b9800c249dd002010200000c0b9000000780014
:101ba80080804100a08520000080400012409800fd
:101bb8000ac8bf008081fb000ac8bf008080fb0004
:101bc800201020000088b90080007800808520005f
:101bd80000804000100078000000e8004201dd00ad
:101be800201020000098b900000078008000410013
:101bf800808520000080400081c5b300014878003e
:101c08000ac8bf000082fb000ac8bf008080fb0032
:101c1800201020000088b90080007800808520000e
:101c280000804000100078009e0078008140780015
:101c3800014178000274a1000000e800c201dd0043
:101c48002010200000a0b90000007800808041002a
:101c58008085200000804000124098000ac8bf001c
:101c68000081fb00201020000090b900800078005f
:101c78008085200000804000100078008001e80086
:101c8800201020000090b900800078008085200096
:101c980000804000030878000ac8bf008081fb006c
:101ca8000ac8bf008080fb00201020000088b9000f
:101cb80080007800808520000080400010007800b7
:101cc8004201dd00201020000098b90000007800d3
:101cd80080004100a08520000080400091c0b30032
:101ce800014878000ac8bf000084fb000ac8bf008a
:101cf8008080fb00201020000088b9008000780058
:101d0800808520000080400090047800e0a5200035
:101d1800904078007e0090000040780000c04000ad
:101d2800b201070001c9b30001417000c249dd00da
:101d38002010200000c0b900000078008080410019
:101d4800a085200000804000124098000ac8bf000b
:101d58000082fb000ac8bf008080fb002010200022
:101d68000088b9008000780080852000008040004d
:101d780010007800e1a5200011417800fe009000d5
:101d880081407800014141000000e800c201dd0007
:101d98002010200000a0b9000000780080804100d9
:101da8008085200000804000024878001e007800ee
:101db8004700de00000f78000ac8bf000082fb0061
:101dc8000ac8bf008080fb00201020000088b900ee
:101dd8008000780080852000008040001000780096
:101de8009e007800014178000000e800c201dd0093
:101df8002010200000a0b900000078008080410079
:101e08008085200000804000124098000ac8bf006a
:101e18000081fb00201020000090b90080007800ad
:101e28008085200000804000100078008001e800d4
:101e3800201020000090b9008000780080852000e4
:101e4800008040000308780010c0b3004f04be00b3
:101e58000080fa00000006000600fa00889fbe0015
:101e6800200798000000eb00000f78002053800046
:101e78004500de00614060000004e000140032000c
:101e88002e0090006e00b90000007800e4004000c9
:101e9800e0a9200000804000100178002e0090008a
:101ea8006e00b900000078008080e800e0a92000fa
:101eb80000804000100078000000510010079800d2
:101ec8001e0090004700de00f1072000008f500040
:101ed8000ac8bf008081fb000ac8bf008080fb00e1
:101ee800201020000088b90080007800808520003c
:101ef80000804000100078004201dd002010200022
:101f08000098b9000000780080004100a0852000fa
:101f18000080400081c0b300014878000ac8bf00b3
:101f28000084fb000ac8bf008080fb00201020004e
:101f38000088b9008000780080852000008040007b
:101f480090047800e0a52000904078002e009000d2
:101f58000040780000c040002401070001c8b30019
:101f680001417000c249dd002010200000c0b90006
:101f78000000780080804100a0852000008040009b
:101f8800124098000ac8bf000082fb000ac8bf00c0
:101f98008080fb00201020000088b90080007800b5
:101fa800808520000080400010007800e1a5200016
:101fb80011417800ae009000814078000141410055
:101fc8000000e800c201dd002010200000a0b900d8
:101fd800000078008080410080852000008040005b
:101fe800024878000ac8bf000082fb000ac8bf0088
:101ff8008080fb00201020000088b9008000780055
:102008008085200000804000100078009e00780045
:10201800014178000000e800c201dd002010200026
:1020280000a0b90000007800808041008085200071
:1020380000804000124098000ac8bf000081fb00e1
:10204800201020000090b9008000780080852000d2
:1020580000804000100078008001e8002010200077
:102068000090b90080007800808520000080400042
:102078000308780010c0b3004f04be000080fa00c7
:10208800000006003a00fa00889fbe00301f980042
:10209800411f9800ea0047008263280015000900e4
:1020a800b21878004e1890008000eb00fdf9070088
:1020b8001007980021079800605380004200dd0057
:1020c800ea004700008040001000be000001be008a
:1020d8001e009000ae00900090f9070030079800ad
:1020e8004107980018c0b3006011b8003e00900086
:1020f800ce009000cbf907000000e00001003c0092
:102108000044eb000804e0007600320002002000e2
:10211800033024003e009000ce00900036fa0700fd
:10212800c2f90700004f78001e4078000004e00064
:1021380002003d00f0c7b300004f78000ac8bf0096
:102148008081fb000ac8bf008080fb0020102000af
:102158000088b90080007800808520000080400059
:10216800100078004201dd00201020000098b9001e
:102178000000780080004100a08520000080400019
:10218800a1c0b300014878000ac8bf000084fb0062
:102198000ac8bf008080fb00201020000088b9001a
:1021a800800078008085200000804000900478003e
:1021b800e0a52000904078003e189000004078008c
:1021c80000c040008900070001cab3000141700047
:1021d800c249dd002010200000c0b90000007800ce
:1021e80080804100a08520000080400012409800b7
:1021f8000ac8bf000082fb000ac8bf008080fb003d
:10220800201020000088b900800078008085200018
:102218000080400010007800e1a5200011417800fe
:10222800be18900081407800014141000000e8009c
:10223800c201dd002010200000a0b90000007800d5
:10224800808041008085200000804000024878009e
:102258000ac8bf008081fb000ac8bf008080fb005d
:10226800201020000088b9008000780080852000b8
:1022780000804000100078000000e8004201dd0006
:10228800201020000098b90000007800800041006c
:1022980080852000008040009e4078001140980012
:1022a8000ac8bf000081fb00201020000090b90080
:1022b80080007800808520000080400010007800b1
:1022c8008001e800201020000090b900800078000c
:1022d80080852000008040000308780010c0b3000b
:1022e800010037000040eb004f04be000080fa00f8
:1022f800000006000400fa00204798008803a9009f
:102308009203a9008540a900c0a52000c01c880030
:102318002e4090008080fb00201020000088b9002b
:10232800000078008080e800808520000080400060
:10233800601c880040c2a90000022000801c8800a0
:1023480010022000d01c880040c2a90002003700fb
:1023580040128000000f7800011280000002200067
:10236800008060000000e000f9ff32008803a80048
:102378009203a8002e4090008080fb0020102000cf
:102388000088b90080007800808520000080400027
:1023980010007800e10f5000030036007040800004
:1023a8000000e80070408800205380004700de00ed
:1023b800614060000004a2000004e000090032004f
:1023c8002e4090008080fb00201020000088b9007b
:1023d8008000780080852000008040001000780090
:1023e800401288000080fa00000006000400fa008d
:1023f8002047980010a62000904078002e409000ba
:1024080080cf500003003e0020a62000104f780027
:1024180002003700f0a52000104f78001e40780019
:102428000080fa00000006000400fa000000200006
:1024380001f02f00d0408800e14088000628ef0016
:102448003300370010002000010020007041880090
:10245800814188007041800081418000008fbe006a
:102468003340800082002000110009008201d8005a
:1024780000017800c311dd00344080008200200094
:10248800110009000202d80001017800670111005b
:10249800028141001e00be00820178008301e9002c
:1024a800030033000000400081804800fbff370034
:1024b8007041880081418800304080000000400061
:1024c8008000780000342000008040001000780070
:1024d800c0408800c140800080bb2000808f500031
:1024e80008003600d2408000e34080007041800040
:1024f800814180000000710081807100d040880017
:10250800e1408800304080000000e800304088004a
:1025180030408000f70f5000caff3400420020000e
:10252800a1812000a0852000c1f90700f0852000c6
:1025380011c0b30001487800008620008040eb00fd
:10254800014878008803a9009203a9008540a900e2
:10255800c0a52000c01c8800a0852000601c880041
:1025680000022000801c880010022000d01c880077
:1025780040c2a9008803a8009203a80041e2a9006c
:102588004402a90041e2a8004822ef00f402a90091
:10259800f402a80000402200410f2000c8070700ed
:1025a800a2ff37000000fa00100020000028880071
:1025b80000302000102888000345a8007226ef008c
:1025c800100020002028880000002800f02888003b
:1025d80070712400e028880020002000001888007e
:1025e80030002000101888004000200020188800c3
:1025f8005000200030188800600020004018880033
:102608007000200050188800c00020006018880062
:10261800d000200070188800e00020008018880092
:10262800f000200090188800b0022000a018880050
:1026380030022000b018880090012000c0188800df
:10264800c0022000d0188800f0022000e01888009e
:1026580000032000f01888002002200000198800dc
:1026680040012000101988008002200020198800ed
:10267800800120003019880090022000401988004d
:10268800a002200050198800d0022000601988009c
:10269800e0022000701988002025ef003c25ef009b
:1026a8005825ef000424ef000c25ef000e25ef005d
:1026b80085a0a900002880000080a1000090a1004a
:1026c80000a0a00000b0a1000028880001e5a80033
:1026d800000000000f0007000004a2000004e00052
:1026e800fcff3a0000c5a800000000000900070030
:1026f8000004a2000004e000fcff3a0000102000e3
:10270800302888001de5a8001dc5a9000080fa0032
:10271800000006000000fa00502880000000d100e8
:10272800614060000080fb0000f0a7000000ea00a4
:102738000000ea004f00de00004078000080fa0048
:10274800000006000000fa005028800000407800d1
:10275800614060000080fb0000f0a7000000ea0074
:102768000000ea004f00de00004078000080fa0018
:10277800000006000000fa001dc5a8001dc5a9003c
:102788000080fa00000006000000fa0039c5a80021
:1027980039c5a9000080fa00000006000000fa0010
:1027a80055c5a80055c5a9000080fa00000006001c
:1027b8000000fa0001c4a80001c4a9000080fa00c2
:1027c800000006000200fa00000f78001e007800e2
:1027d800304090000080fb004f00dd00f2288000b0
:1027e800f1ff27008100610001007000f0288800d7
:1027f8001e00780030409000634060000080fb00bd
:10280800630060004d00dd00f2288000f1ff290020
:102818008100610001007000f02888001e00780027
:10282800204090007f4060000080fb007f00600037
:10283800f228800001fe2f00810061000100700075
:10284800f0288800f028800000b0a10000c0a10096
:10285800f02888001e007800104078007f40600053
:102868000080fb007f0060004800dd00e228800057
:10287800f10f2e008100610001007000e02888003f
:102888001e007800104090000040e900f043b200bc
:102898008080fb00f003200000806000e2288000b8
:1028a80001fc2f008100610001007000e028880011
:1028b8002025ef001de5a8000080fa0000000600b2
:1028c8000200fa00000f78001e00780030409000e7
:1028d8000080fb004f00dd00d2298000f1ff2700b7
:1028e8008100610001007000d02988001e00780076
:1028f800304090000004e0000200320010c0b30035
:102908000100370020c0b3000080fb0063006000b6
:102918004d00dd00d2298000f1ff2900810061000f
:1029280001007000d02988001e0078002040900027
:102938007f4060000080fb007f006000d22980009b
:1029480001fe2f008100610001007000d02988007d
:10295800d029800000b0a10000c0a100d0298800c3
:102968001e007800104078007f4060000080fb0067
:102978007f0060004800dd00c2298000f10f2e00b2
:102988008100610001007000c02988001e007800e5
:10299800104090000040e900f043b2008080fb0046
:1029a800f003200000806000c229800001fc2f0095
:1029b8008100610001007000c02988003c25ef00fb
:1029c80039e5a8000080fa00000006000200fa00bd
:1029d800000f78001e007800304090000080fb0057
:1029e8004f00dd00b22a8000f1ff2700810061005e
:1029f80001007000b02a88001e0078003040900066
:102a08000004e0000200320010c0b30001003700eb
:102a180020c0b3000080fb00630060004d00dd00b3
:102a2800b22a8000f1ff29008100610001007000d6
:102a3800b02a88001e007800204090007f40600087
:102a48000080fb007f006000b22a800001fe2f009a
:102a58008100610001007000b02a8800b02a80005f
:102a680000b0a10000c0a100b02a88001e007800b4
:102a7800104078007f4060000080fb007f0060000d
:102a88004800dd00a22a8000f10f2e0081006100bd
:102a980001007000a02a88001e00780010409000f5
:102aa8000040e900f043b2008080fb00f003200002
:102ab80000806000a22a800001fc2f0081006100d4
:102ac80001007000a02a88005825ef0055e5a800ed
:102ad8000080fa00000006000200fa00000f7800eb
:102ae8001e007800304090000080fb004f00dd00a1
:102af80012208000f1ff27008100610001007000b2
:102b0800102088001020800000d0a00000e0a10064
:102b1800102088001e007800204090007f40600050
:102b28000080fb007f0060001220800001fe2f0063
:102b380081006100010070001020880010208000d2
:102b480000b0a10000c0a100102088001e0078007d
:102b5800104078007f4060000080fb007f0060002c
:102b68004800dd0002208000f10f2e008100610086
:102b780001007000002088001e00780010409000be
:102b88000040e900f043b2008080fb00f003200021
:102b9800008060000220800001fc2f00810061009d
:102ba80001007000002088000424ef0001e4a80060
:102bb8000080fa00000006000000fa001de5a900e8
:102bc8000080fa00000006000000fa0039e5a900bc
:102bd8000080fa00000006000000fa0055e5a90090
:102be8000080fa00000006000000fa0001e4a900d5
:102bf8000080fa00000006000600fa00204798004e
:102c080031479800424798002e4090000080fb0012
:102c1800000040008000780000302000008f400055
:102c28003e4090008080fb004e4090000080fb00fa
:102c38004e00dd0000804000800078001e00780013
:102c4800010878000080fa00000006000600fa007b
:102c58001007980041479800524798000040eb0041
:102c68001047980040288000610060000000e000e4
:102c78001a0032000040eb00004f780010003700c7
:102c88001e80fb00000040009e00900080804000f5
:102c98004e4090000080fb000000400000017800da
:102ca80000342000000041001000780080087800ff
:102cb8004e4090000040e800404798001e4fe80052
:102cc8005e4090009e40780080cf5000ecff3900b5
:102cd80022a5a90010c0b300104798001e4090001c
:102ce8000080fa00000006000600fa0010079800ad
:102cf80041479800524798000040eb001047980061
:102d080040288000620060000000e0001a003200e5
:102d18000040eb00004f7800100037001e80fb00d9
:102d2800000040009e009000808040004e409000cf
:102d38000080fb0000004000000178000034200003
:102d48000000410010007800800878004e40900094
:102d58000040e800404798001e4fe8005e409000a1
:102d68009e40780080cf5000ecff39003ea5a900b6
:102d780010c0b300104798001e4090000080fa0071
:102d8800000006000600fa00100798004147980066
:102d9800524798000040eb001047980040288000f8
:102da800640060000000e0001a0032000040eb0000
:102db800004f7800100037001e80fb000000400024
:102dc8009e009000808040004e4090000080fb00f4
:102dd800000040000001780000342000000041009d
:102de80010007800800878004e4090000040e8000d
:102df800404798001e4fe8005e4090009e407800d3
:102e080080cf5000ecff39005aa5a90010c0b300cc
:102e1800104798001e4090000080fa00000006004d
:102e28000600fa001007980041479800524798009a
:102e38000040eb00104798004028800068006000c0
:102e48000000e0001a0032000040eb00004f78005c
:102e5800100037001e80fb00000040009e0090001c
:102e6800808040004e4090000080fb000000400041
:102e780000017800003420000000410010007800b4
:102e8800800878004e4090000040e80040479800d5
:102e98001e4fe8005e4090009e40780080cf5000b2
:102ea800ecff390006a4a90010c0b3001047980031
:102eb8001e4090000080fa00000006000400fa009e
:102ec800100798000040eb00004f78004028800071
:102ed800700060000000e0001900320090288000b7
:102ee8008000eb001e0190000089be001e009000cb
:102ef8001000be00c000dd00000020001e01900090
:102f08000089be001e0090001001be0080288000cd
:102f18008000eb0000007100818071001e019000ac
:102f28000089be001025ef001225ef000c65ef00a8
:102f38000ee5a8000885a90010c0b300004f78006e
:102f48001e4078000080fa00000006000000fa0029
:102f58004028800000407800614060000080fb004d
:102f680000f0a7000000ea000000ea004f00de00c1
:102f7800004078000080fa00000006000000fa0017
:102f8800402880000000d100614060000080fb0004
:102f980000f0a7000000ea000000ea004f00de0091
:102fa800004078000080fa00000006000000fa00e7
:102fb800402880004200de00614060000080fb0085
:102fc80000f0a7000000ea000000ea004f00de0061
:102fd800004078000080fa00000006000000fa00b7
:102fe800402880004300de00614060000080fb0054
:102ff80000f0a7000000ea000000ea004f00de0031
:10300800004078000080fa00000006000000fa0086
:10301800402880004400de00614060000080fb0022
:1030280000f0a7000000ea000000ea004f00de0000
:10303800004078000080fa0000000600809fbe0073
:103048000000fa00210480000000220000806000d7
:103058000000e0000100320085a0a9000080fa000d
:103068004f00be00004006000000fa0010002000db
:10307800001c88000080eb00301c880000802000c5
:10308800201c880000042000401c88000020230029
:10309800501c88008c23ef0080242000701c8800be
:1030a80000022000801c88008480a9000001200004
:1030b800901c880000202300a01c88008024200089
:1030c800b01c88009823ef0010022000d01c880054
:1030d80085c0a90081e3a8008803a8009203a8007e
:1030e8000080fa00000006000000fa008480a900b1
:1030f800f402a8000080fa00004006000000fa0070
:1031080085c0a9000080fa00004006000200fa000d
:10311800000f78001e0078000000e0000300320075
:10312800e10f50000300320004003700801c8000cb
:1031380003003700d01c8000010037000000eb00be
:103148000080fa00000006000200fa00000f780074
:103158001e0078000000e00003003200e10f50007c
:1031680003003200040037008903a800020037007a
:103178009303a800000000000080fa000000060089
:103188000400fa00000f7800110798001e0078006c
:103198000000e00003003200e10f5000040032009c
:1031a800060037009e009000611c8800030037006d
:1031b8009e009000b11c8800000000000080fa000a
:1031c800000006000400fa00000f780011079800bc
:1031d8001e0078000000e00003003200e10f5000fc
:1031e80004003200060037009e009000711c880021
:1031f800030037009e009000c11c880000000000fa
:103208000080fa00000006000200fa00000f7800b3
:103218001e0078000000e00003003200e10f5000bb
:103228000b00320014003700401c80004800de000c
:10323800614060000080fb0000f0a7000000ea0089
:103248000000ea004f00de00004078000b00370065
:10325800901c80004800de00614060000080fb0098
:1032680000f0a7000000ea000000ea004f00de00be
:1032780000407800010037000040eb000080fa00b1
:10328800000006000200fa00000f78001e00780017
:103298000000e00003003200e10f50000b00320094
:1032a80014003700501c80004f00de0000407800fa
:1032b8000080fb0000f0a7000000ea000000ea0020
:1032c8004f00de00004078000b003700a01c800093
:1032d8004f00de00004078000080fb0000f0a700ef
:1032e8000000ea000000ea004f00de00004078001d
:1032f800010037000040eb000080fa0000000600e3
:103308000200fa00000f78001e0078000000e000bc
:1033180003003200e10f50000b00320014003700a8
:10332800501c80004700de00614060000080fb0008
:1033380000f0a7000000ea000000ea004f00de00ed
:10334800004078000b003700a01c80004700de001a
:10335800614060000080fb0000f0a7000000ea0068
:103368000000ea004f00de0000407800010037004e
:103378000040eb000080fa00000006000200fa009e
:10338800000f78001e0078000000e0000300320003
:10339800e10f50000b00320014003700501c800071
:1033a8004600de00614060000080fb0000f0a700de
:1033b8000000ea000000ea004f00de00004078004c
:1033c8000b003700a01c80004600de006140600052
:1033d8000080fb0000f0a7000000ea000000ea00ff
:1033e8004f00de0000407800010037000040eb008d
:1033f8000080fa00000006000200fa00000f7800c2
:103408001e0078000000e00003003200e10f5000c9
:103418000b00320014003700501c80004500de000d
:10342800614060000080fb0000f0a7000000ea0097
:103438000000ea004f00de00004078000b00370073
:10344800a01c80004500de00614060000080fb0099
:1034580000f0a7000000ea000000ea004f00de00cc
:1034680000407800010037000040eb000080fa00bf
:10347800000006000200fa00000f78001e00780025
:103488000000e00003003200e10f50000b003200a2
:1034980014003700501c80004300de0061406000cb
:1034a8000080fb0000f0a7000000ea000000ea002e
:1034b8004f00de00004078000b003700a01c8000a1
:1034c8004300de00614060000080fb0000f0a700c0
:1034d8000000ea000000ea004f00de00004078002b
:1034e800010037000040eb000080fa0000000600f1
:1034f8000200fa00000f78001e0078000000e000cb
:1035080003003200e10f50000b00320014003700b6
:10351800501c80004400de00614060000080fb0019
:1035280000f0a7000000ea000000ea004f00de00fb
:10353800004078000b003700a01c80004400de002b
:10354800614060000080fb0000f0a7000000ea0076
:103558000000ea004f00de0000407800010037005c
:103568000040eb000080fa00000006000000fa00ae
:10357800c422ef00f06f2c0000168800cc22ef0068
:10358800f00f2f0040168800d422ef00c0012f0052
:1035980080168800dc22ef000080eb00c01688004f
:1035a800e422ef00f03f200000178800ec22ef0033
:1035b800f01b23004017880010002000a017880087
:1035c800e02c2f00801788002000200000278800aa
:1035d800f00f2f0010278800800120002027880086
:1035e8000080eb0030278800002120004027880059
:1035f800000022005027880000002800602788006b
:10360800113a8000f00b2000008160006004200067
:1036180071052000237420008049780081497800d2
:103628008249780041358000f00f2c0080806000ce
:1036380000502100010070004035880041358000ad
:1036480000fc2f0000806000a001b3004035880016
:1036580091368000f00f2c00808060000070200000
:1036680001007000903688005135800000fc2f0062
:1036780000806000b001b30050358800113a800026
:103688000004200001017000600420007105200082
:1036980023742000804978008149780082497800a5
:1036a8006420a8006440a80064c0a80064e0a800e2
:1036b8006660a8006680a80066a0a80066c0a8008a
:1036c80066e0a8006700a8006720a8006740a80077
:1036d8006760a8006780a80069e0a8006a00a800e1
:1036e8006a20a8006a40a8006a80a8006aa0a8000a
:1036f8006ac0a8006ae0a800600380006b40a800c8
:103708008660a9009660a8006005800000c0a0003f
:1037180000d0a10000e0a100600588000080fa0048
:1037280000000600809fbe00829fbe00841f7800b4
:103738003200f8003400f80010002000a0018800d2
:1037480000202000900188000000fa001017800077
:103758001042880050178000204288001016800010
:103768003042880090168000504288008660a90088
:10377800a0418000b040880011428000001e200057
:10378800008060001042880021428000f01b200069
:10379800008060002042880031428000c06f2c0009
:1037a80000806000304288005142800000002900fb
:1037b800008060005042880050428000c600de0051
:1037c80020428000010070004042880011428000c1
:1037d800000e200000806000c600dd00304280003e
:1037e800010070008000eb00d0418800e1418800b2
:1037f800104280006101b800001020000100200084
:103808000202780003017800800178000100780046
:1038180003026200000061008000eb00c000dd00d0
:10382800000020000001be006120b8000001710006
:1038380081817100d0418000e14180000000710069
:1038480081807100d0418800e1418800d241800028
:10385800e34180004818dd00c810de0081007000d8
:103868004810dd00d0418800e141880040428000d6
:103878006101b800d0418000e14180000000710082
:1038880081807100d0418800e1418800d2418000e8
:10389800e3418000b0418000c14180000000690020
:1038a80081806900f041880001428800f041800071
:1038b80001428000e00f5000e08f58003c003200c9
:1038c800d0418000e1418000b0418800c1418800ba
:1038d800f241800003428000d0418000e141800035
:1038e8000202780003017800800178000100780066
:1038f80003026200000061008000eb00c000dd00f0
:10390800000020000001be006120b8000001710025
:10391800818171000200be00f040880001418800ea
:10392800f040800001418000e00f5000e08f580017
:103938000200320010c0b30002e8b700d041800096
:10394800e14180000081ea008181ea00f0418000c5
:1039580001428000020278000301780080017800ab
:103968000100780003026200000061008000eb00a3
:10397800c000dd00000020000001be006120b8008a
:1039880000017100818171000200be0010418800b1
:10399800214188001041800021418000e00f500043
:1039a800e08f58000200320010c0b30003e8b700ef
:1039b8000080fa003400f9003200f9004f02780064
:1039c8004f01be004f00be00004006000000fa0094
:1039d80000482000101288004302a80010002000b0
:1039e8002012880040002800001288000012800081
:1039f8000020a1000030a0000040a00000128800b4
:103a08000080fa00000006000000fa00efff07003f
:103a18000080fa00000006000400fa00000f780099
:103a2800110798000000000000128000620060008a
:103a38000000e000fcff3a00111280000040200066
:103a4800008060000000e00002003a000000eb0087
:103a58000100370010002000e10f500004003a0078
:103a68001e0078001000780040128800050037001a
:103a78001e007800104078000080fb00401288008b
:103a88000000000001128000000220000080600099
:103a98000000e000fbff3a00111280000040200007
:103aa800008060000000e00002003a000000eb0027
:103ab8000100370010002000e10f500004003a0018
:103ac8001e009000411280000108780004003700b1
:103ad80040128000804078001e0090000148780065
:103ae8000080fa00000006001a00fa00200f980073
:103af800310f9800420f98000000eb00000f78008b
:103b08000000eb00100798000000eb00000f980081
:103b18000000eb00100f98001112800000402000f8
:103b2800008060000000e00002003a000000eb00a6
:103b38000100370010002000700798007e009000f8
:103b4800e10f500006003a002000200040079800ce
:103b58003e0890000000d100300f980002003700a6
:103b680010002000400798002e0890000000e00098
:103b780005003a000000eb0060079800720047005b
:103b88002007980004003700ce00900061079800d5
:103b9800ae089000210798004e0890000000e00051
:103ba80005003a000000eb0050079800700047003d
:103bb8003007980005003700ce00900051079800a4
:103bc800ce08900031079800000000000012800025
:103bd800620060000000e000fcff3a002d003700a2
:103be8001e009000e70f500013003e007e0090007a
:103bf800e10f500004003a002e00900010007800f9
:103c080040128800040037002e0090001040780011
:103c18000080fb0040128800ae0090006e0090000b
:103c280000804000200798001e0fe8001e0090004a
:103c38000000e80010079800011280000002200030
:103c4800008060000000e00012003a007e00900052
:103c5800e10f500004003a003e009000411280003d
:103c68000108780004003700401280008040780086
:103c78003e00900001487800be0090005e00900071
:103c880000804000300798001e0090000000e90006
:103c9800100798003e0890009e007800808f500022
:103ca800cfff390017003700011280000002200002
:103cb800008060000000e00012003a007e009000e2
:103cc800e10f500004003a003e00900041128000cd
:103cd8000108780004003700401280008040780016
:103ce8003e00900001487800be0090005e00900001
:103cf80000804000300798001e0090000000e90096
:103d0800100798001e0090000000e000e6ff3a004f
:103d18001e0078000080fa00000006000400fa0087
:103d2800100798008e0078000e80e8003aff070020
:103d38001e0078000080fa00000006000200fa0069
:103d4800000f78001e007800f4ff07000080fa00da
:103d5800000006000600fa00000f7800110798001e
:103d680022079800ae0090001e007800010178003c
:103d78009e0090005cff07000080fa00000006002b
:103d88000600fa00000f7800110798002207980033
:103d98002e0190009e0090001e007800edff0700a5
:103da8000080fa00000006000000fa0011128000ee
:103db80000402000008060000000e00002003a009f
:103dc8000000eb0001003700100020000080fa001e
:103dd800000006000000fa00001280000080fa00cf
:103de800000006000000fa00faff07000080fa0051
:103df800000006000000fa000001280020088800e2
:103e08000021ef00a0002000100888008460a900ad
:103e18009460a800800021008040eb0001487800f1
:103e28000080fa00000006000000fa00f1ff070019
:103e38000080fa00000006003600f800809fbe00ef
:103e4800829fbe00849fbe00869fbe000000fa00cd
:103e58003e00070090002100104078008040e800f4
:103e680090002100014878008000210011c0b300b3
:103e7800014878008460a9000080fa004f03be0062
:103e88004f02be004f01be004f00be003600f900d1
:103e9800004006000200fa00000f78009e0078003b
:103ea80011088800800021008040eb00014878005c
:103eb8000080fa00000006000200fa00000f7800f7
:103ec8001e007800f3ff07000080fa0000000600db
:103ed8000000fa00100880000080fa0000000600c8
:103ee8000000fa00faff07000080fa000000060050
:103ef8000200fa00000f78009e0078000108880090
:103f0800800021008040eb00014878000080fa0022
:103f1800000006000200fa00000f78001e0078007a
:103f2800f3ff07000080fa00000006000000fa0016
:103f3800000880000080fa00000006000000fa0077
:103f4800faff07000080fa00000006000000fa00ef
:103f5800a04180000000e800a04188000080fa002d
:103f6800000006000000fa00800021008040eb00fd
:103f7800014878009460a80005e1a8000080fa00d4
:103f8800000006000000fa00f6ff07000080fa00b3
:103f9800000006000000fa0005e1a9009460a900ed
:103fa8000080fa00000006000000fa00f9ff070090
:103fb8000080fa00000006000200fa0080002100dc
:103fc800104f78001e4078000004e0000300320023
:103fd800800021008040eb00014878001e407800f6
:103fe8000080fa00000006000000fa00f2ff070057
:103ff8000080fa00000006000000fa00900021008e
:10400800104078000080fa00000006000000fa0066
:10401800f9ff07000080fa00000006000000fa001f
:10402800900021008040eb00014878000080fa00f1
:10403800000006000000fa00f8ff07000080fa0000
:10404800000006000000fa0000012800800888002f
:104058000621ef00007d20006008880084e0a900a8
:1040680094e0a800600021008040eb00014878003f
:104078000080fa00000006000000fa00f1ff0700c7
:104088000080fa00000006003600f800809fbe009d
:10409800829fbe00849fbe00869fbe000000fa007b
:1040a8003e00070070002100104078008040e800c2
:1040b80070002100014878006000210011c0b300a1
:1040c8000148780084e0a9000080fa004f03be0090
:1040d8004f02be004f01be004f00be003600f9007f
:1040e800004006000200fa00000f78009e007800e9
:1040f80061088800600021008040eb0001487800da
:104108000080fa00000006000200fa00000f7800a4
:104118001e007800f3ff07000080fa000000060088
:104128000000fa00600880000080fa000000060025
:104138000000fa00faff07000080fa0000000600fd
:104148000200fa00000f78009e007800310888000d
:10415800600021008040eb00014878000080fa00f0
:10416800000006000200fa00000f78001e00780028
:10417800f3ff07000080fa00000006000000fa00c4
:10418800300880000080fa00000006000000fa00f5
:10419800faff07000080fa00000006000000fa009d
:1041a80010c0b30001e8b7000080fa000000060064
:1041b8000000fa00600021008040eb000148780010
:1041c80094e0a80011e1a8000080fa0000000600b1
:1041d8000000fa00f6ff07000080fa000000060061
:1041e8000000fa0011e1a90094e0a9000080fa009b
:1041f800000006000000fa00f9ff07000080fa003e
:10420800000006000200fa0060002100104f78004c
:104218001e4078000004e000030032006000210026
:104228008040eb00014878001e4078000080fa00ca
:10423800000006000000fa00f2ff07000080fa0004
:10424800000006000000fa0070002100104078000d
:104258000080fa00000006000000fa00f9ff0700dd
:104268000080fa00000006000000fa00700021003b
:104278008040eb00014878000080fa00000006004a
:104288000000fa00f8ff07000080fa0000000600ae
:104298000000fa000080fa00000006000c00fa0096
:1042a800d01680008000eb00008fbe005016800002
:1042b8008000eb0020079800310798002e0090003e
:1042c800be0090004409dd004c00de0000007100d3
:1042d800cc88de0040079800510798004e019000f6
:1042e800de0190004618dd00ca10de008100700073
:1042f8004610dd0040079800510798002e009000f6
:10430800be009000c800dd000000200020079800d3
:10431800310798002e009000be0090004a88de0009
:10432800cf80de0020079800310798001e01be00ec
:104338004a18dd00c610de00810070004a10dd005a
:10434800008fbe002e019000be0190004e0090002c
:10435800de00900000007100818071003e01700055
:10436800ae8170000200be00200798003107980057
:104378002e009000be0090000080fa0000000600a9
:020000040000fa
:104388000610000002000000800000000810000075
:104398000200000080000000ee0f0000180000007e
:1043a8008200000011100600070908001516170002
:1043b800140d0c000b0a0f000e0305000400010089
:1043c8000213120058080000960700008000000041
:1043d80000080000520000008000000052080000a1
:1043e80006000000820000002c01b8000bf4010058
:0443f80000000000c1
:020000040000fa
:1043fc000000fa00090007005bfc0700180007002a
:10440c0067f8070017fb07006ffd070078fe070031
:10441c000bff07000080fa00000006000200fa0003
:10442c0000022300303a880000002100403a880046
:10443c000000eb00000f78000000eb00000f78008c
:10444c00010037001e0fe800f07022009e0078007b
:10445c00808f5000fbff34000080fa000000060043
:10446c000000fa003005800000c0a10000d0a100bf
:10447c0000e0a00030058800500580000040a0003e
:10448c000050a0000060a10050058800600580006d
:10449c0000c0a10000d0a00000e0a10060058800d1
:1044ac002005800000c0a00000d0a00000e0a1000a
:0c44bc00200588000080fa0000000600c7
:020000040000fa
:1044c800f03fb1000180b10006003500ee0309009d
:1044d80000000000403fb1000180b100fbff3d003b
:1044e8001000b000203fb000020035000080090035
:0844f8000000000000000600b6
:020000040000fa
:020000040002f8
:04aff0003fc400005a
:020000040000fa
:020000040002f8
:04aff40080ee0000eb
:020000040000fa
:020000040002f8
:04aff8009f7900003d
:020000040000fa
:020000040002f8
:04affc003f3b0000d7
:00000001FF
